:020000040800F2
:1000000000800020394E00089D4B00089F4B0008DF
:10001000A14B0008A34B0008A54B000800000000FE
:10002000000000000000000000000000A74B0008D6
:10003000A94B000800000000AB4B0008AD4B0008C6
:10004000894E0008894E0008894E0008894E000834
:10005000894E0008894E0008894E0008894E000824
:10006000894E0008894E0008894E0008894E000814
:10007000894E0008894E0008894E0008894E000804
:10008000894E000800000000B54B0008894E0008AA
:10009000894E0008894E0008894E0008894E0008E4
:1000A000894E0008894E0008894E0008894E0008D4
:1000B000894E0008894E0008894E0008894E0008C4
:1000C000894E0008894E0008894E0008894E0008B4
:1000D000894E0008C54B0008894E0008894E00086B
:1000E000894E0008894E0008894E0008894E000894
:1000F000D54B0008894E0008894E0008000000001A
:1001000000000000894E000800000000894E000831
:10011000894E000800000000894E0008894E000842
:10012000894E0008894E0008894E0008894E000853
:10013000894E00080000000000000000894E000801
:10014000894E0008894E00080000000000000000F1
:10015000000000000000000000000000000000009F
:10016000000000000000000000000000894E0008B0
:10017000894E0008000000000000000000000000A0
:1001800000000000894E0008000000000000000090
:10019000000000000000000000000000000000005F
:1001A0000000000000000000894E0008894E000891
:1001B000894E0008894E0008894E000800000000A2
:1001C00000000000894E0008000000000000000050
:0801D000894E0008894E000869
:1002000010B5054C237833B9044B13B10448AFF350
:1002100000800123237010BD901B0020000000000F
:1002200080AF000808B5034B1BB103490348AFF387
:10023000008008BD00000000941B002080AF000873
:1002400053B94AB9002908BF00281CBF4FF0FF313D
:100250004FF0FF3000F074B9ADF1080C6DE904CE39
:1002600000F006F8DDF804E0DDE9022304B0704791
:100270002DE9F047089E0D4604468846002B4DD1D7
:100280008A42944668D9B2FA82F252B101FA02F374
:10029000C2F1200120FA01F10CFA02FC41EA030844
:1002A00094404FEA1C45210CB8FBF5FE1FFA8CF771
:1002B00005FB1E8341EA03430EFB07F199420BD96C
:1002C0001CEB03030EF1FF3080F01E81994240F2D7
:1002D0001B81AEF1020E63445B1AA4B2B3FBF5F0CE
:1002E00005FB103344EA034400FB07F7A7420AD991
:1002F0001CEB040400F1FF3380F00881A74240F2B8
:10030000058164440238E41B40EA0E4000211EB11E
:10031000D4400023C6E90043BDE8F0878B4208D9EA
:10032000002E00F0EE800021C6E900050846BDE879
:10033000F087B3FA83F100294AD1AB4202D382425B
:1003400000F2F980841A65EB030301209846002E21
:10035000E2D0C6E90048DFE702B9FFDEB2FA82F276
:10036000002A40F09180A1EB0C054FEA1C471FFAD0
:100370008CFE0121B5FBF7F307FB1350250C45EA72
:1003800000450EFB03F0A84208D91CEB050503F15C
:10039000FF3802D2A84200F2CB8043462D1AA4B205
:1003A000B5FBF7F007FB105544EA05440EFB00FED1
:1003B000A64508D91CEB040400F1FF3502D2A6457E
:1003C00000F2BB802846A4EB0E0440EA03409EE7FF
:1003D000C1F120078B4022FA07FC4CEA030C20FAFB
:1003E00007F405FA01F31C43FD404FEA1C4900FAEB
:1003F00001F3B5FBF9F8200C1FFA8CFE09FB185528
:1004000040EA054508FB0EF0A84202FA01F20BD9BA
:100410001CEB050508F1FF3A80F08880A84240F205
:100420008580A8F1020865442D1AA4B2B5FBF9F045
:1004300009FB105544EA054500FB0EFEAE4508D900
:100440001CEB050500F1FF346CD2AE456AD90238C9
:10045000654440EA0840A0FB0294A5EB0E05A542C6
:10046000C846A64656D353D05EB1B3EB080265EB3F
:100470000E0505FA07F722FA01F3CD401F43C6E93E
:1004800000750021BDE8F087C2F1200320FA03F1D6
:100490000CFA02FC25FA03F395400D434FEA1C4782
:1004A0001FFA8CFEB3FBF7F107FB11302B0C43EA6C
:1004B000004301FB0EF0984204FA02F408D91CEB49
:1004C000030301F1FF382FD298422DD9023963443A
:1004D0001B1AADB2B3FBF7F007FB103345EA034537
:1004E00000FB0EF3AB4208D91CEB050500F1FF3809
:1004F00016D2AB4214D902386544ED1A40EA0141E4
:1005000038E73146304607E78646E5E61846FAE61C
:100510004B45A9D2B9EB020864EB0C0E0138A3E7F6
:100520004046EAE7204694E74146D1E7D0467BE7DC
:10053000023B654432E7084609E76444023842E773
:10054000704700BF00000000000000000000000035
:1005500001F0FF01102A2BDB10F0070F08D010F874
:10056000013B013A8B422DD010F0070F42B3F6D178
:10057000F0B441EA012141EA014122F007047FF091
:1005800000070023F0E80256083C85EA010586EAE8
:10059000010685FA47F5A3FA87F586FA47F6A5FA24
:1005A00087F68EB9EED1F0BC01F0FF0102F0070230
:1005B00032B110F8013B013A83EA010313B1F8D1DB
:1005C0000020704701387047002D06BF35460338BC
:1005D000073815F0010F07D1013015F4807F02BFF5
:1005E000013015F4C03F0130F0BC0138704700BF46
:1005F000844641EA000313F003036DD1403A41D32E
:1006000051F8043B40F8043B51F8043B40F8043BEC
:1006100051F8043B40F8043B51F8043B40F8043BDC
:1006200051F8043B40F8043B51F8043B40F8043BCC
:1006300051F8043B40F8043B51F8043B40F8043BBC
:1006400051F8043B40F8043B51F8043B40F8043BAC
:1006500051F8043B40F8043B51F8043B40F8043B9C
:1006600051F8043B40F8043B51F8043B40F8043B8C
:1006700051F8043B40F8043B51F8043B40F8043B7C
:10068000403ABDD2303211D351F8043B40F8043B1C
:1006900051F8043B40F8043B51F8043B40F8043B5C
:1006A00051F8043B40F8043B103AEDD20C3205D32C
:1006B00051F8043B40F8043B043AF9D2043208D024
:1006C000D2071CBF11F8013B00F8013B01D30B8896
:1006D00003806046704700BF082A13D38B078DD074
:1006E00010F003038AD0C3F10403D21ADB071CBF46
:1006F00011F8013B00F8013B80D331F8023B20F8B0
:10070000023B7BE7043AD9D3013A11F8013B00F8E8
:10071000013BF9D20B7803704B7843708B78837070
:10072000604670470000000000000000000000006C
:1007300000000000000000000000000000000000B9
:1007400090F800F06DE9024520F007016FF0000C11
:1007500010F0070491F820F040F049804FF00004B9
:100760006FF00700D1E9002391F840F000F1080094
:1007700082FA4CF2A4FA8CF283FA4CF3A2FA8CF3CC
:100780004BBBD1E9022382FA4CF200F10800A4FA33
:100790008CF283FA4CF3A2FA8CF3E3B9D1E9042387
:1007A00082FA4CF200F10800A4FA8CF283FA4CF3BE
:1007B000A2FA8CF37BB9D1E9062301F1200182FA78
:1007C0004CF200F10800A4FA8CF283FA4CF3A2FA7E
:1007D0008CF3002BC6D0002A04BF04301A4612BA8C
:1007E000B2FA82F2FDE8024500EBD2007047D1E98F
:1007F000002304F00305C4F100004FEAC50514F01E
:10080000040F91F840F00CFA05F562EA05021CBFEE
:1008100063EA050362464FF00004A9E781F0004156
:1008200002E000BF83F0004330B54FEA41044FEAD5
:10083000430594EA050F08BF90EA020F1FBF54EA70
:10084000000C55EA020C7FEA645C7FEA655C00F00C
:10085000E2804FEA5454D4EB5555B8BF6D420CDDDD
:100860002C4480EA020281EA030382EA000083EA60
:10087000010180EA020281EA0303362D88BF30BD00
:1008800011F0004F4FEA01314FF4801C4CEA113156
:1008900002D0404261EB410113F0004F4FEA0333B5
:1008A0004CEA133302D0524263EB430394EA050F40
:1008B00000F0A780A4F10104D5F1200E0DDB02FAAF
:1008C0000EFC22FA05F2801841F1000103FA0EF243
:1008D000801843FA05F359410EE0A5F120050EF109
:1008E000200E012A03FA0EFC28BF4CF0020C43FA3A
:1008F00005F3C01851EBE37101F0004507D54FF047
:10090000000EDCF1000C7EEB00006EEB0101B1F596
:10091000801F1BD3B1F5001F0CD349085FEA3000DC
:100920004FEA3C0C04F101044FEA445212F5800FE7
:1009300080F09A80BCF1004F08BF5FEA500C50F184
:10094000000041EB045141EA050130BD5FEA4C0C67
:10095000404141EB0101013C28BFB1F5801FE9D2C4
:1009600091F0000F04BF01460020B1FA81F308BFE7
:100970002033A3F10B03B3F120020CDA0C3208DDB3
:1009800002F1140CC2F10C0201FA0CF021FA02F18E
:100990000CE002F11402D8BFC2F1200C01FA02F1FE
:1009A00020FA0CFCDCBF41EA0C019040E41AA2BF23
:1009B00001EB0451294330BD6FEA04041F3C1CDAEB
:1009C0000C340EDC04F11404C4F1200220FA04F00B
:1009D00001FA02F340EA030021FA04F345EA0301B5
:1009E00030BDC4F10C04C4F1200220FA02F001FA77
:1009F00004F340EA0300294630BD21FA04F02946F9
:100A000030BD94F0000F83F4801306BF81F4801191
:100A10000134013D4EE77FEA645C18BF7FEA655C04
:100A200029D094EA050F08BF90EA020F05D054EAD6
:100A3000000C04BF1946104630BD91EA030F1EBFDB
:100A40000021002030BD5FEA545C05D140004941DF
:100A500028BF41F0004130BD14F580043CBF01F5D2
:100A6000801130BD01F0004545F0FE4141F47001B8
:100A70004FF0000030BD7FEA645C1ABF1946104693
:100A80007FEA655C1CBF0B46024650EA013406BF94
:100A900052EA033591EA030F41F4002130BD00BF53
:100AA00090F0000F04BF0021704730B54FF4806410
:100AB00004F132044FF000054FF0000150E700BF91
:100AC00090F0000F04BF0021704730B54FF48064F0
:100AD00004F1320410F0004548BF40424FF00001DD
:100AE0003EE700BF42004FEAE2014FEA31014FEA20
:100AF00002701FBF12F07F4393F07F4F81F060516F
:100B0000704732F07F4208BF704793F07F4F04BFB9
:100B100041F40021704730B54FF4607401F0004596
:100B200021F000411CE700BF50EA010208BF7047F6
:100B300030B54FF000050AE050EA010208BF7047E7
:100B400030B511F0004502D5404261EB41014FF450
:100B5000806404F132045FEA915C3FF4D8AE4FF058
:100B600003025FEADC0C18BF03325FEADC0C18BF3B
:100B7000033202EBDC02C2F1200300FA03FC20FA8C
:100B800002F001FA03FE40EA0E0021FA02F11444D9
:100B9000BDE600BF70B54FF0FF0C4CF4E06C1CEAF2
:100BA00011541DBF1CEA135594EA0C0F95EA0C0F63
:100BB00000F0DEF82C4481EA030621EA4C5123EAD6
:100BC0004C5350EA013518BF52EA033541F4801105
:100BD00043F4801338D0A0FB02CE4FF00005E1FBB8
:100BE00002E506F00042E0FB03E54FF00006E1FB02
:100BF00003569CF0000F18BF4EF0010EA4F1FF0445
:100C0000B6F5007F64F5407404D25FEA4E0E6D4184
:100C100046EB060642EAC62141EA55514FEAC52095
:100C200040EA5E504FEACE2EB4F1FD0C88BFBCF511
:100C3000E06F1ED8BEF1004F08BF5FEA500E50F1C2
:100C4000000041EB045170BD06F0004646EA010188
:100C500040EA020081EA0301B4EB5C04C2BFD4EBBA
:100C60000C0541EA045170BD41F480114FF0000EB3
:100C7000013C00F3AB8014F1360FDEBF002001F021
:100C8000004170BDC4F10004203C35DA0C341BDC9B
:100C900004F11404C4F1200500FA05F320FA04F06D
:100CA00001FA05F240EA020001F0004221F00041A1
:100CB00010EBD37021FA04F642EB06015EEA430E14
:100CC00008BF20EAD37070BDC4F10C04C4F1200544
:100CD00000FA04F320FA05F001FA04F240EA0200F7
:100CE00001F0004110EBD37041F100015EEA430EC8
:100CF00008BF20EAD37070BDC4F1200500FA05F2E8
:100D00004EEA020E20FA04F301FA05F243EA020366
:100D100021FA04F001F0004121FA04F220EA020075
:100D200000EBD3705EEA430E08BF20EAD37070BDBB
:100D300094F0000F0FD101F00046400041EB01019B
:100D400011F4801F08BF013CF7D041EA060195F07D
:100D5000000F18BF704703F00046520043EB030337
:100D600013F4801F08BF013DF7D043EA0603704724
:100D700094EA0C0F0CEA135518BF95EA0C0F0CD02F
:100D800050EA410618BF52EA4306D1D181EA030175
:100D900001F000414FF0000070BD50EA410606BF6F
:100DA0001046194652EA430619D094EA0C0F02D1B4
:100DB00050EA013613D195EA0C0F05D152EA0336F9
:100DC0001CBF104619460AD181EA030101F0004117
:100DD00041F0FE4141F470014FF0000070BD41F060
:100DE000FE4141F4780170BD70B54FF0FF0C4CF43A
:100DF000E06C1CEA11541DBF1CEA135594EA0C0F59
:100E000095EA0C0F00F0A7F8A4EB050481EA030EA5
:100E100052EA03354FEA013100F088804FEA03338C
:100E20004FF0805545EA131343EA12634FEA02225A
:100E300045EA111545EA10654FEA00260EF000411B
:100E40009D4208BF964244F1FD0404F5407402D26D
:100E50005B084FEA3202B61A65EB03055B084FEAFE
:100E600032024FF480104FF4002CB6EB020E75EBFB
:100E7000030E22BFB61A754640EA0C005B084FEA23
:100E80003202B6EB020E75EB030E22BFB61A7546A0
:100E900040EA5C005B084FEA3202B6EB020E75EBEB
:100EA000030E22BFB61A754640EA9C005B084FEA63
:100EB0003202B6EB020E75EB030E22BFB61A754670
:100EC00040EADC0055EA060E18D04FEA051545EA5F
:100ED00016754FEA06164FEAC30343EA52734FEA08
:100EE000C2025FEA1C1CC0D111F4801F0BD141EA81
:100EF00000014FF000004FF0004CB6E711F4801FE6
:100F000004BF01430020B4F1FD0C88BFBCF5E06FC5
:100F10003FF6AFAEB5EB030C04BFB6EB020C5FEAD5
:100F2000500C50F1000041EB045170BD0EF0004E2A
:100F30004EEA113114EB5C04C2BFD4EB0C0541EA5C
:100F4000045170BD41F480114FF0000E013C90E659
:100F500045EA060E8DE60CEA135594EA0C0F08BF1D
:100F600095EA0C0F3FF43BAF94EA0C0F0AD150EA1C
:100F700001347FF434AF95EA0C0F7FF425AF1046AF
:100F800019462CE795EA0C0F06D152EA03353FF4D7
:100F9000FDAE1046194622E750EA410618BF52EA54
:100FA00043067FF4C5AE50EA41047FF40DAF52EA28
:100FB00043057FF4EBAE12E74FF0FF3C06E000BFC5
:100FC0004FF0010C02E000BF4FF0010C4DF804CDD2
:100FD0004FEA410C7FEA6C5C4FEA430C18BF7FEA92
:100FE0006C5C1BD001B050EA410C0CBF52EA430CC0
:100FF00091EA030F02BF90EA020F0020704710F140
:10100000000F91EA030F58BF994208BF90422CBFCE
:10101000D8176FEAE37040F0010070474FEA410CC7
:101020007FEA6C5C02D150EA013C07D14FEA430CE5
:101030007FEA6C5CD6D152EA033CD3D05DF8040B56
:10104000704700BF8446104662468C461946634688
:1010500000E000BF01B5FFF7B7FF002848BF10F15F
:10106000000F01BD4DF808EDFFF7F4FF0CBF0120A4
:1010700000205DF808FB00BF4DF808EDFFF7EAFF20
:1010800034BF012000205DF808FB00BF4DF808EDDB
:10109000FFF7E0FF94BF012000205DF808FB00BFD0
:1010A0004DF808EDFFF7CEFF94BF012000205DF85A
:1010B00008FB00BF4DF808EDFFF7C4FF34BF012067
:1010C00000205DF808FB00BF4FEA410C7FEA6C5C32
:1010D00002D150EA013C0AD14FEA430C7FEA6C5C32
:1010E00002D152EA033C02D14FF0000070474FF0AA
:1010F000010070474FEA410212F5001215D211D5D6
:101100006FF47873B3EB625212D94FEAC12343F004
:10111000004343EA505311F0004F23FA02F018BF86
:10112000404270474FF00000704750EA013005D14F
:1011300011F0004008BF6FF0004070474FF0000012
:10114000704700BF104B1B680BB90120704710B5EA
:1011500004464FF47A70B0FBF3F30C4A1068B0FB0E
:10116000F3F001F051F868B90F2C01D901200AE021
:10117000002221464FF0FF3001F000F8044B1C60C4
:10118000002000E0012010BD000000200C00002025
:101190000400002010B5032000F0DEFF0F20FFF751
:1011A000D1FF10B10124204610BD044603F0DAFC43
:1011B000F9E70000034A1368034909680B44136008
:1011C000704700BFAC1B002000000020014B1868D6
:1011D000704700BFAC1B002030B583B000230193E3
:1011E000002800F00D810446C36D13B323689A688C
:1011F00012F0005F05D09A6822F0204222F03F02F0
:101200009A602268936813F0805F1FD1936823F07F
:10121000104323F03F0343F080539360794B1B68E6
:101220009B09794AA2FB03239B0901335B000193CD
:1012300009E003F0A7FA0023236684F85830D5E7C5
:10124000019B013B0193019B002BF9D1226893681C
:1012500013F0805F40F09C80E36D43F01003E36582
:10126000236E43F0010323660120936813F0040307
:1012700000D00123E16D11F0100F40F0BA80002B77
:1012800040F0B780E36D23F4817343F00203E3651C
:10129000936813F0010F15D14FF0A0439B6813F032
:1012A000010300D00123594A926812F0010200D0D4
:1012B0000122134306D1636855498A6822F47C12DF
:1012C00013438B60627FE36B43EA4233E26813436C
:1012D000A268134394F8242043EA0243012A59D018
:1012E000E26A22B102F47872216B0A431343216847
:1012F000CD68484A2A401343CB602268136923F023
:101300004063616B0B43136121688B6813F0040326
:1013100000D001238A6812F0080200D0012243BBEA
:101320003ABB227F94F838305B0043EA8232CB68C4
:1013300023F4804323F002031343CB60236973B388
:101340002268136943F4803313612268D2F8C030F5
:1013500023F47F5323F03F0321690B43C2F8C030CD
:1013600094F84030012B29D02268136923F001033F
:1013700013616369012B33D02268136B23F00F03D1
:101380001363E36D23F0030343F00103E36535E0EA
:1013900000206AE7A26A013A43EA4243A0E72268D2
:1013A000136923F4803313612268D2F8C03023F428
:1013B0007F5323F03F03C2F8C030D1E721680B69A7
:1013C00023F4FF6323F00403626CA56C2A43E56CED
:1013D0002A43256D2A43134343F001030B61C8E7F9
:1013E00021680B6B23F00F03226A013A13430B634E
:1013F000C7E7E36D43F01003E365012003B030BDA0
:101400000120FBE70C000020632D3E050001005089
:10141000000300500740F0FF0368186C70477047E6
:1014200070470000F8B5044603681F685D68984B74
:101430009E6806F01F0617F0020F10D015F0020F7D
:101440000DD0C36D13F0100F03D1C36D43F40063CF
:10145000C365204600F0F4FD236802221A6017F0ED
:10146000040F02D015F0040F05D117F0080F4AD071
:1014700015F0080F47D0E36D13F0100F03D1E36DA3
:1014800043F40073E3652368DA6812F4406F34D1E3
:10149000804A934209D01A46934209D046B1052E9C
:1014A00006D0092E04D0D26803E04FF0A042F3E743
:1014B000DA6812F4005F20D11A6812F0080F1CD00D
:1014C0009A6812F0040F10D15A6822F00C025A6088
:1014D000E36D23F48073E365E36D13F4805F0CD157
:1014E000E36D43F00103E36507E0E36D43F01003B0
:1014F000E365236E43F001032366204603F018FAE8
:1015000023680C221A6017F0200F02D015F0200F6C
:1015100005D117F0400F5CD015F0400F59D0E36DA6
:1015200013F0100F03D1E36D43F40053E365236818
:10153000DA6C12F4C07F12D10121DA6812F4406F24
:101540000FD10120534A93420DD01A4693420DD039
:1015500066B1062E0AD0072E08D0D26807E0002117
:10156000EBE70020EEE74FF0A042EFE7DA6851B377
:1015700012F0007F03D030B312F4005F23D119685A
:1015800011F0400F1FD012F4001F1CD19A6812F006
:10159000080F10D15A6822F060025A60E36D23F4FC
:1015A0008053E365E36D13F4807F0CD1E36D43F06A
:1015B0000103E36507E0E36D43F01003E365236E89
:1015C00043F001032366204600F036FD23686022C5
:1015D0001A6017F0800F02D015F0800F2FD117F48A
:1015E000807F02D015F4807F34D117F4007F02D0C1
:1015F00015F4007F3AD117F0100F19D015F0100F25
:1016000016D0E36B33B1002E3CD0214B9B6813F412
:10161000604F0AD0E36D43F48063E365236E43F0CB
:10162000020323662046FFF7FBFE236810221A60A0
:1016300017F4806F02D015F4806F2DD1F8BDE36DE3
:1016400043F48033E3652046FFF7E9FE23688022F8
:101650001A60C4E7E36D43F40033E365204600F00D
:10166000EDFC23684FF480721A60BEE7E36D43F42B
:101670008023E365204600F0E2FC23684FF400720B
:101680001A60B8E72368DB6813F0010FCDD0C1E71B
:101690000003005000010050E36D43F48043E36514
:1016A000236E43F00803236623684FF480621A60B8
:1016B000204600F0C2FCC1E7F0B583B000220192E1
:1016C00090F85820012A00F05E820346012280F83B
:1016D00058200568A86810F0040F09D0DA6D42F0B0
:1016E0002002DA650120002283F8582003B0F0BD03
:1016F0004C683035220A920002F00C02A85804F01F
:101700001F0E1F2404FA0EF420EA04000C68C4F330
:10171000846C0CFA0EFC40EA0C00A8501868826831
:1017200012F0040200D00122846814F0080400D0F2
:101730000124002A50D1002C4ED18D68B5F1004F04
:1017400000F082800F6814307A0E920002F00402DA
:101750008658C7F3045E4FF0070C0CFA0EFC26EA1D
:101760000C0C05FA0EF54CEA05058550186842691F
:1017700022F0004242614D691868C268C2F3C1029A
:10178000520005FA02F20E69042E75D0603050F84E
:101790002670A84D3D400F6807F0F8473A431543BF
:1017A00045F0004540F826501A680E698869603295
:1017B00052F8265025F08075284342F826001A6812
:1017C0000D69087F012854D0603252F8250020F0BE
:1017D0000070044342F825401868826812F0010F37
:1017E00017D10A68CD68D0F8B040C2F3120C24EAD1
:1017F0000C0405F0180C904D25FA0CF52A40C2F3A4
:1018000012022243C0F8B020C8688C4A904200F00F
:101810009B800A688A490A4200F0AD81894989683B
:1018200001F0E070884CA24200F05C81874CA2423B
:1018300000F05881864CA24200F07A81854CA24289
:1018400000F0888100204EE70D6814306A0E920087
:1018500002F004028658C5F30455072707FA05F578
:1018600026EA050585501868426942F00042426147
:1018700081E74FF00074A7E7026E046EC4F384643E
:101880000A68C2F3120585BBC2F38462944234D065
:101890001C68626E606EC0F384600A68C2F3120551
:1018A00085BBC2F38462904234D01C68A26EA06EE5
:1018B000C0F384600A68C2F3120585BBC2F3846278
:1018C000904234D01C68E26EE06EC0F384600A6817
:1018D000C2F3120585BBC2F3846290427FF47CAFF1
:1018E000E26E22F00042E26676E792FAA2F212B1CC
:1018F000B2FA82F2CAE72022C8E7026E22F0004262
:101900000266C5E792FAA2F212B1B2FA82F2CAE70F
:101910002022C8E7626E22F000426266C5E792FAB2
:10192000A2F212B1B2FA82F2CAE72022C8E7A26E8E
:1019300022F00042A266C5E792FAA2F212B1B2FA10
:1019400082F2CAE72022C8E71C680A68C2F31205BF
:10195000002D38D1900E013000F01F0009288CBFF7
:1019600000200120002877D0002D3BD1900E0130BF
:10197000800600F0F840002D40D1960E013606F0AA
:101980001F070126BE403043002D45D1920E013283
:1019900002F01F0202EB420212050243886804F1C2
:1019A0001406550EAD0005F004057459C2F3045237
:1019B0004FF0070C0CFA02FC24EA0C0C90404CEAA5
:1019C0000000705125E792FAA2F048B1B0FA80F019
:1019D000013000F01F0009288CBF00200120C1E762
:1019E0002020F5E792FAA2F030B1B0FA80F0013091
:1019F000800600F0F840BEE72020F8E792FAA2F651
:101A000046B1B6FA86F6013606F01F06012707FA38
:101A100006F6B8E72026F6E792FAA2F242B1B2FA49
:101A200082F2013202F01F0202EB42021205B4E719
:101A30002022F6E700F0FF03FFFF070000007F40D1
:101A40000000088000030050000021C31000C09077
:101A5000000052C7000084CBCDB9900E0130800643
:101A600000F0F840FDB9960E013606F01F0701267A
:101A7000BE4030432DBB920E013202F01F0202EB3A
:101A800042021E3A120542F00072024386E792FAC1
:101A9000A2F030B1B0FA80F00130800600F0F840DA
:101AA000E0E72020F8E792FAA2F646B1B6FA86F609
:101AB000013606F01F06012707FA06F6D9E72026A9
:101AC000F6E792FAA2F25AB1B2FA82F2013202F0C9
:101AD0001F0202EB42021E3A120542F00072D4E7E6
:101AE0002022F3E711F4000F7FF4A4AE1A68B2F1DC
:101AF000A04F01D00020F6E540F4000023498A6899
:101B000022F0E07210438860214A1268920921494C
:101B1000A1FB02129209013202EB420292000192F1
:101B2000019A1AB1019A013A0192F9E70020DAE527
:101B300011F0807F7FF482AE1968174A91421CD061
:101B400040F0807011498A6822F0E072104388608A
:101B50000020C8E511F4800F11D119680E4A914296
:101B60000FD040F480020948816821F0E0710A43F7
:101B700082600020B7E50020B5E50020B3E5002035
:101B8000B1E50020AFE50220B0E500BF0003005042
:101B90000C000020632D3E050001005070B5044686
:101BA00003689A6812F0040200D00122986810F0CD
:101BB000080000D001200AB900286BD0DA6812F0C2
:101BC000007F04D0A08B40F2011290424ED0022937
:101BD00010D023689A6812F0040F0BD09A6812F0A4
:101BE000020F07D19A6822F0004222F03F0242F031
:101BF00010029A60012910D023689A6812F0080F29
:101C00000BD09A6812F0020F07D19A6822F00042B6
:101C100022F03F0242F020029A60022934D00329C8
:101C200034D10C25FFF7D2FA064623689B682B4275
:101C30002ED0FFF7CBFA801B0528F6D923689B68C6
:101C40002B42F2D0E36D43F01003E365236E43F0C3
:101C50000103236601201CE0E36D43F01003E365FC
:101C6000236E43F001032366012012E0002219686D
:101C700011F0400F04D108498A42EDD80132F6E74D
:101C800040221A600121A4E70825CBE70425C9E713
:101C9000002070BD0020FCE7FFFF3FA338B50368BC
:101CA0009A6812F0010F40D104469968204A114207
:101CB00009D0C36D43F01003C365036E43F0010305
:101CC0000366012032E09A6822F0004222F03F02CF
:101CD00042F001029A60FFF779FA054623681A6814
:101CE00012F0010F1FD19A6812F0010F07D19A6804
:101CF00022F0004222F03F0242F001029A60FFF718
:101D000065FA431B022BE9D923681B6813F0010F06
:101D1000E4D1E36D43F01003E365236E43F0010368
:101D20002366012002E0002000E0002038BD00BF53
:101D30003F00008038B55F4B9D6803689B6813F0D7
:101D4000040F40F0B380044605F01F0590F85830AA
:101D5000012B00F0AD80012380F85830FFF79EFF83
:101D6000002840F09F80E36D23F4706323F00103AB
:101D700043F48073E36523684F4A93424FD01A4679
:101D8000934200D01DB9E26D22F48012E265E26D4B
:101D900012F4805F46D0226E22F0060222661C22D8
:101DA0001A60002384F858302268536823F01C031B
:101DB0005360A369082B38D02268536843F00403AA
:101DC0005360E36B23B92268536843F010035360F8
:101DD0002368394A93422ED01A4693422ED06DB3CF
:101DE000052D2BD0092D29D0E16D41F48011E1653D
:101DF000D26812F0007F5AD0E26D22F4405242F4D1
:101E00008052E265A269082A42D05A6822F0400254
:101E10005A602268536843F02003536047E04FF054
:101E2000A042ADE700222266B9E72268536843F07A
:101E300008035360C5E74FF0A042CEE7DA6812F01E
:101E4000007F11D0E26D22F4405242F48052E265EC
:101E5000A269082A12D05A6822F040025A60226809
:101E6000536843F0200353602268936823F00043D3
:101E700023F03F0343F00403936018E05A6822F014
:101E800020025A602268536843F040035360EBE736
:101E90005A6822F020025A602268536843F04003D7
:101EA000536004E0002384F8583000E0022038BD7D
:101EB0000220FCE7000300500001005038B5044642
:101EC0000268936813F0020300D00123916811F0B7
:101ED000010F39D0002B39D1936803F00D03012B8A
:101EE00009D0E36D43F01003E365236E43F0010373
:101EF0002366012029E0936823F0004323F03F0389
:101F000043F002039360236803221A60FFF75EF92F
:101F1000054623689B6813F0010F13D0FFF756F9AD
:101F2000401B0228F5D923689B6813F0010FF0D0FD
:101F3000E36D43F01003E365236E43F00103236672
:101F4000012002E0002000E0002038BD0020FCE776
:101F500090F85830012B1FD010B50446012380F8AB
:101F600058300321FFF71AFE18B1002384F85830C7
:101F700010BD2268536823F01C0353602046FFF70E
:101F80009DFF0028F1D1E36D23F4885323F0010372
:101F900043F00103E365E8E70220704730B583B002
:101FA0000023019390F85830012B41D004460D4690
:101FB000012380F85830FFF781FF80BBE36D23F4E5
:101FC000885323F0020343F00203E3652268936819
:101FD00023F0404323F03F0305F080452B4343F0BB
:101FE0000043936023689B68002B06DBE36D23F0BE
:101FF000030343F00103E36515E0019B0133019303
:10200000019A0C4B9A42EDD9E36D23F0120343F091
:102010001003E365002384F85830012006E0E36DE7
:1020200043F01003E365002384F8583003B030BD5B
:102030000220FBE701DE04007047704770477047DD
:102040007047000090F85820012A7ED010B49DB04F
:102050000346012280F85820002218921992006845
:10206000B0F1A04F39D000220192019A002A37D056
:10207000926812F0040200D00122806810F0040F70
:1020800054D1002A52D10A68002A32D0304CA268BA
:1020900022F46042486893F838C040EA4C3002436A
:1020A000A2604FF0A042926812F0010200D001221B
:1020B0002848806810F0010000D00120024340D180
:1020C000234CA26822F4716222F00F02086889682A
:1020D00001430A43A26000202DE01E4A0192C4E79A
:1020E000DA6D42F02002DA65002283F858200120E0
:1020F00024E017498A6822F460428A604FF0A042C7
:10210000926812F0010200D001221249896811F090
:10211000010100D001210A4315D10D498A6822F43A
:10212000716222F00F028A60002004E0DA6D42F052
:102130002002DA650120002283F858201DB010BC6F
:1021400070470020F7E70020F5E70220704700BF46
:102150000003005000010050074AD36823F4E063F5
:102160001B041B0C000200F4E060034343F0BF6358
:1021700043F40033D360704700ED00E000B5194B25
:10218000DB68C3F30223C3F1070CBCF1040F28BFC3
:102190004FF0040C03F1040EBEF1060F18D9033BF7
:1021A0004FF0FF3E0EFA0CFC21EA0C0199400EFAAA
:1021B00003F322EA0303194300280BDB0901C9B228
:1021C00000F1604000F5614080F800135DF804FB09
:1021D0000023E5E700F00F000901C9B2024B1954D2
:1021E000F4E700BF00ED00E014ED00E0002807DB9D
:1021F00000F01F02400901239340024A42F82030B8
:10220000704700BF00E100E00138B0F1807F0BD2E1
:102210004FF0E0235861054AF02182F82310002096
:10222000986107221A6170470120704700ED00E0B5
:10223000034690F82520D2B2022A09D00422C263B4
:102240000120012283F82520002283F824207047F2
:1022500001680A6822F00E020A60816C0A6822F4A2
:1022600080720A6001680A6822F001020A60426C0A
:1022700002F01F01006C01228A404260DA6C196D85
:1022800051605A6D42B1116821F4807111609A6DEC
:10229000D96D51600020D4E70020D2E708B590F84E
:1022A0002530DBB2022B09D00423C363012380F85D
:1022B0002530002280F82420184608BD02681368E3
:1022C00023F00E0313600268136823F00103136008
:1022D000826C136823F480731360436C03F01F0255
:1022E000016C012393404B60C36C026D5A60436DD7
:1022F00033B11A6822F480721A60836DC26D5A601D
:10230000012380F82530002380F82430836B13B13B
:1023100098470020D1E70020CFE70000F0B583B058
:10232000002336E0052400E00024B4403C4302359D
:10233000634E46F82540634C2568D44325EA0206DF
:102340004F6817F4803F01D042EA05065D4D2E60CC
:102350006D6804EA05064F6817F4003F01D042EAB1
:102360000506584D6E60AD6804EA05064F6817F41F
:10237000801F01D042EA0506524DAE60ED682C4048
:102380004E6816F4001F01D042EA05044D4AD4609D
:1023900001330A6832FA03F400F08F804FF0010C29
:1023A0000CFA03FC1CEA0202F2D04C68651E012DF7
:1023B00003D9112C01D0122C13D185685E0003249F
:1023C000B44025EA0405CC68B4402C4384604468DA
:1023D00024EA0C0C4C68C4F300149C4044EA0C043E
:1023E0004460C6684FEA430C032505FA0CF5EC433C
:1023F00026EA050E8D6805FA0CF545EA0E05C5605E
:102400004D68022D01D0122D12D1DE08083650F889
:10241000267003F007054FEA850E0F2505FA0EF525
:1024200027EA05070D6905FA0EF53D4340F82650E9
:10243000056825404C6804F0030404FA0CF42C43AE
:1024400004604C6814F0805FA2D01F4C256E45F0EC
:1024500001052566246E04F001040194019C9D0889
:10246000AE1C174C54F8267003F00304A6000F248A
:10247000B44027EA0407B0F1904F3FF455AF134C36
:10248000A04212D004F58064A04210D004F580640C
:10249000A0420ED004F58064A0420CD004F5806404
:1024A000A0423FF43FAF06243FE701243DE702246A
:1024B0003BE7032439E7042437E703B0F0BD00BF4E
:1024C00000000140000401400010024000040048E8
:1024D0000AB181617047816270470000002836D1DF
:1024E0003E4B1B6803F4C063B3F5806F08D03B4AD2
:1024F000D2F8803023F48073C2F880300020704717
:10250000364AD2F8803023F48073C2F880301368E2
:1025100023F4C06343F400731360314B1B68322211
:1025200002FB03F32F4AA2FB03239B0C013300E0C1
:10253000013B2A4A526912F4806F01D0002BF7D177
:10254000264B5B6913F4806F44D100207047B0F5CF
:10255000007F08D0214A136823F4C06343F48063EA
:102560001360002070471D4B1B6803F4C063B3F574
:10257000806F08D0194AD2F8803043F48073C2F8D3
:10258000803000207047154AD2F8803043F48073C1
:10259000C2F88030136823F4C06343F400731360FF
:1025A0000F4B1B68322202FB03F30E4AA2FB0323EC
:1025B0009B0C013300E0013B084A526912F4806F22
:1025C00001D0002BF7D1054B5B6913F4806F03D169
:1025D00000207047032070470320704700700040C0
:1025E0000C00002083DE1B43024A936843F48043BF
:1025F0009360704700700040124BDA6802F00302EB
:10260000D868C0F30310431C032A11D00E48B0FB56
:10261000F3F00C4BDB68C3F3062303FB00F0094B1C
:10262000DB68C3F3416301335B00B0FBF3F0704739
:102630000648B0FBF3F0034BDB68C3F3062303FB50
:1026400000F0ECE7001002400024F40000366E01B8
:10265000002800F0548270B582B00446036813F07D
:10266000010F37D0A44A936803F00C03D26802F03C
:1026700003020C2B23D0082B23D06368B3F5803FD3
:102680004ED0B3F5A02F51D09B4B1A6822F4803264
:102690001A601A6822F480221A606368002B52D0F4
:1026A000FEF794FD0546944B1B6813F4003F11D1CF
:1026B000FEF78CFD401B6428F5D9032028E2032A8D
:1026C000D9D18D4B1B6813F4003F03D06368002BF6
:1026D00000F01782236813F0020F5DD0864A9368DA
:1026E00003F00C03D26802F003020C2B3AD0042B47
:1026F0003AD0E368002B75D07F4A136843F48073A7
:102700001360FEF763FD05467B4B1B6813F4806F77
:102710005FD1FEF75BFD401B0228F5D90320F7E1EE
:10272000754A136843F480331360B6E703F18043BE
:10273000A3F53C331A6842F480221A601A6842F406
:1027400080321A60A9E7FEF741FD05466A4B1B6817
:1027500013F4003FBED0FEF739FD401B6428F5D9C5
:102760000320D5E1022AC2D1634B1B6813F4806FAA
:1027700003D0E368002B00F0C6815F4A536823F062
:10278000FE43216943EA016353605C4B1868FEF71E
:10279000D9FC002840F0B981236813F0080F4CD011
:1027A00063699BB3544AD2F8943043F00103C2F8F2
:1027B0009430FEF70BFD05464F4BD3F8943013F0E1
:1027C000020F3AD1FEF702FD401B0228F4D9032084
:1027D0009EE1494A536823F0FE43216943EA0163BD
:1027E0005360D9E7444A136823F480731360FEF7FB
:1027F000EDFC0546404B1B6813F4806FCCD0FEF710
:10280000E5FC401B0228F5D9032081E13A4AD2F8C1
:10281000943023F00103C2F89430FEF7D7FC05464C
:10282000354BD3F8943013F0020F06D0FEF7CEFCF0
:10283000401B0228F4D903206AE1236813F0040F37
:1028400000F081802C4B9B6D13F0805F36D12A4BBA
:102850009A6D42F080529A659B6D03F0805301930C
:10286000019B0125264B1B6813F4807F28D0A368A9
:10287000012B39D0052B45D01F4BD3F8902022F0E7
:102880000102C3F89020D3F8902022F00402C3F88C
:102890009020A368002B43D0FEF798FC0646164B09
:1028A000D3F8903013F0020F4CD1FEF78FFC801B51
:1028B00041F288339842F2D9032029E10025D1E77B
:1028C0000F4A136843F480731360FEF77FFC0646DB
:1028D0000B4B1B6813F4807FC9D1FEF777FC801B7C
:1028E0000228F5D9032013E1034AD2F8903043F0CF
:1028F0000103C2F89030CCE7001002400400002031
:10290000007000408A4BD3F8902042F00402C3F8D4
:102910009020D3F8902042F00102C3F89020B8E74D
:10292000FEF754FC0646824BD3F8903013F0020FAA
:1029300008D0FEF74BFC801B41F288339842F2D955
:102940000320E5E0E5B9236813F0200F35D0A36933
:10295000E3B1774AD2F8983043F00103C2F89830D7
:10296000FEF734FC0546724BD3F8983013F0020F93
:1029700023D1FEF72BFC401B0228F4D90320C7E02B
:102980006B4A936D23F080539365DCE7684AD2F875
:10299000983023F00103C2F89830FEF717FC054683
:1029A000634BD3F8983013F0020F06D0FEF70EFCFD
:1029B000401B0228F4D90320AAE0E369002B00F0B1
:1029C000A6805B4A926802F00C020C2A69D0022BA6
:1029D0001DD0574B1A6822F080721A60DA6822F014
:1029E0000302DA60DA6822F0887222F48032DA6058
:1029F000FEF7ECFB04464E4B1B6813F0007F4ED0F5
:102A0000FEF7E4FB001B0228F5D9032080E0484ACA
:102A1000136823F080731360FEF7D8FB0546444B20
:102A20001B6813F0007F06D0FEF7D0FB401B022886
:102A3000F5D903206CE03E4AD3683E491940236A29
:102A4000606A013843EA0013A06A43EA0023206B5E
:102A50004008013843EA4053606B4008013843EABC
:102A60004063E06A43EAC0630B43D360136843F0FA
:102A700080731360D36843F08073D360FEF7A6FBC6
:102A800004462B4B1B6813F0007F06D1FEF79EFB1C
:102A9000001B0228F5D903203AE0002038E000208E
:102AA00036E0012B36D0224BDB6803F00301226AAB
:102AB000914231D103F0F002616A0139B2EB011F9A
:102AC0002CD103F4FE42A16AB2EB012F28D103F00E
:102AD0007842E16AB2EBC16F24D103F4C001226BEA
:102AE0005208013AB1EB425F1ED103F0C063626B42
:102AF0005208013AB3EB426F18D1002008E00120E0
:102B00007047012004E0012002E0012000E00020E5
:102B100002B070BD0120FBE70120F9E70120F7E7D3
:102B20000120F5E70120F3E70120F1E70120EFE7BD
:102B3000001002400C809F011E4B9B6803F00C03A9
:102B4000042B33D01B4B9B6803F00C03082B2FD0B6
:102B5000184B9B6803F00C030C2B01D0002070472E
:102B6000144BDA6802F00302D868C0F30310431C68
:102B7000032A11D01048B0FBF3F00E4BDB68C3F30F
:102B8000062303FB00F00B4BDB68C3F34163013307
:102B90005B00B0FBF3F070470848B0FBF3F0054B67
:102BA000DB68C3F3062303FB00F0ECE70248704741
:102BB00002487047001002400024F40000366E0105
:102BC000002800F0E680F8B50C460546744B1B68FB
:102BD00003F00F038B420BD2714A136823F00F03EB
:102BE0000B431360136803F00F038B4240F0D38054
:102BF0002E6816F001065FD06B68032B2FD0022BD6
:102C00004DD0684B1B6813F4806F00F0C680FFF74F
:102C100093FF654B98424DD9624A936823F0F003C5
:102C200043F08003936080265E4A936823F0030399
:102C300069680B439360FEF7C9FA0746594B9B68D6
:102C400003F00C036A68B3EB820F35D0FEF7BEFACF
:102C5000C01B41F288339842F0D9032078E0514BF1
:102C60001B6813F0007F01D1012071E0FFF7C4FC65
:102C70004D4B98421AD94B4B9B6813F0F00F05D07F
:102C80002E6816F00206CFD0AB688BB9454A936820
:102C900023F0F00343F0800393608026C4E7414BA8
:102CA0001B6813F4003FB2D1012051E00026BBE7BE
:102CB0000026B9E70026B7E72B6813F0020F48D0CB
:102CC00013F0040F04D0374A936843F4E063936031
:102CD0002B6813F0080F06D0324A936823F47C5314
:102CE00043F4E06393602F4A936823F0F003A968EC
:102CF0000B4393602A4B1B6803F00F03A34230D8A9
:102D00002B6813F0040F06D0264A936823F4E0637F
:102D1000E9680B4393602B6813F0080F07D0214A32
:102D2000936823F46053296943EAC1039360FFF772
:102D300003FF1C4B9B68C3F303131C4AD35C03F0D3
:102D40001F03D8401A4B18601A4B1868FEF7FAF99F
:102D5000F8BD802ECED1134A936823F0F003936020
:102D6000C8E70F4A136823F00F0323431360FEF7ED
:102D70002DFA06460A4B1B6803F00F03A342BFD08F
:102D8000FEF724FA801B41F288339842F2D90320DF
:102D9000DEE7012070470120DAE70120D8E700BF15
:102DA000002002400010024000B4C404E8AF000854
:102DB0000C00002004000020014B1868704700BF81
:102DC0000C00002008B5FFF7F7FF054B9B68C3F325
:102DD0000223044AD35C03F01F03D84008BD00BFA0
:102DE00000100240F8AF000808B5FFF7E5FF054BFB
:102DF0009B68C3F3C223044AD35C03F01F03D8408B
:102E000008BD00BF00100240F8AF0008F0B583B065
:102E10000446036813F4002F69D0AE4B9B6D13F08A
:102E2000805F1ED1AB4B9A6D42F080529A659B6DCC
:102E300003F080530193019B0126A74A136843F4D2
:102E400080731360FEF7C2F90546A34B1B6813F4A9
:102E5000807F08D1FEF7BAF9401B0228F5D9032577
:102E600002E00026E9E7002545BB9A4BD3F89030F5
:102E700013F4407315D0226C9A4212D0954AD2F8BE
:102E8000903023F44073D2F8901041F48031C2F8AE
:102E90009010D2F8901021F48031C2F89010C2F84E
:102EA000903013F0010F10D145B98A4AD2F8903012
:102EB00023F44073216C0B43C2F89030C6B1854AAD
:102EC000936D23F08053936512E0FEF77FF9074678
:102ED000804BD3F8903013F0020FE5D1FEF776F96E
:102EE000C01B41F288339842F2D90325DCE7002564
:102EF000236813F0010F08D0764AD2F8883023F007
:102F0000030361680B43C2F88830236813F0020F93
:102F100008D0704AD2F8883023F00C03A1680B4324
:102F2000C2F88830236813F0040F08D0694AD2F839
:102F3000883023F03003E1680B43C2F888302368FF
:102F400013F0080F08D0634AD2F8883023F0C0038A
:102F500021690B43C2F88830236813F0200F08D092
:102F60005C4AD2F8883023F4406361690B43C2F8AD
:102F70008830236813F0400F08D0564AD2F88830C2
:102F800023F44053A1690B43C2F88830236813F03F
:102F9000800F08D04F4AD2F8883023F44043E169CB
:102FA0000B43C2F88830236813F4807F08D0494A65
:102FB000D2F8883023F44033216A0B43C2F88830BA
:102FC000236813F4007F08D0424AD2F8883023F4F3
:102FD0004023616A0B43C2F88830236813F4806F82
:102FE0000CD03C4AD2F8883023F44013A16A0B433A
:102FF000C2F88830A36AB3F5801F57D0236813F452
:10300000006F0CD0334AD2F8883023F44003E16AD1
:103010000B43C2F88830E36AB3F5800F4BD02368C6
:1030200013F4805F0CD02B4AD2F8883023F0407321
:10303000216B0B43C2F88830236BB3F1807F3FD004
:10304000236813F4005F0CD0224AD2F8883023F0B2
:103050004063616B0B43C2F88830636BB3F1006F60
:1030600033D0236813F4804F0CD01A4AD2F888303A
:1030700023F04063A16B0B43C2F88830A36BB3F11C
:10308000006F2BD0236813F4004F0CD0114AD2F8F4
:10309000883023F04053E16B0B43C2F88830E36B78
:1030A000B3F1805F1FD0284603B0F0BDD36843F46E
:1030B0008013D360A2E7D36843F48013D360AEE7F4
:1030C000D36843F48013D360BAE7D36843F4801322
:1030D000D360C6E70010024000700040D36843F49C
:1030E0008013D360CEE7D36843F48033D360DAE74C
:1030F00010B4036A046A24F001040462846924F0B1
:10310000F00C4CEA021223F00A030B4382610362C3
:1031100010BC704710B4046A24F01004046284697F
:10312000036A24F4704C4CEA023223F0A00343EA11
:1031300001138261036210BC7047836823F440135B
:1031400023F070030B4343F00703836070470000D4
:1031500090F83D30DBB2012B32D1022380F83D30B4
:103160000268D36843F00103D3600368174A9342AF
:1031700018D0B3F1804F15D0A2F59432934211D0FC
:1031800002F5806293420DD002F59632934209D047
:1031900002F54062934205D01A6842F001021A60BB
:1031A0000020704799680A4A0A40062A0AD0B2F5F8
:1031B000803F09D01A6842F001021A60002070476F
:1031C000012070470020704700207047002C01400C
:1031D00007000100704770477047704710B50446FC
:1031E00003681A6912F0020F12D0DA6812F0020FA7
:1031F0000ED06FF002021A610123037703689B6906
:1032000013F0030F00F09F80FFF7E5FF0023237703
:1032100023681A6912F0040F13D0DA6812F0040F51
:103220000FD06FF004021A610223237723689B6991
:1032300013F4407F00F08D802046FFF7CCFF002381
:10324000237723681A6912F0080F12D0DA6812F097
:10325000080F0ED06FF008021A6104232377236849
:10326000DB6913F0030F7BD02046FFF7B4FF002388
:10327000237723681A6912F0100F12D0DA6812F05F
:10328000100F0ED06FF010021A6108232377236805
:10329000DB6913F4407F6AD02046FFF79CFF0023D0
:1032A000237723681A6912F0010F03D0DA6812F04D
:1032B000010F63D123681A6912F0800F03D0DA6816
:1032C00012F0800F61D123681A6912F4807F03D055
:1032D000DA6812F0800F5FD123681A6912F0400F8C
:1032E00003D0DA6812F0400F5DD123681A6912F03A
:1032F000200F03D0DA6812F0200F5BD123681A691F
:1033000012F4801F03D0DA6812F4801F59D12368A9
:103310001A6912F4001F03D0DA6812F4001F57D1A3
:1033200023681A6912F4800F03D0DA6812F4800F50
:1033300055D123681A6912F4000F03D0DA6812F429
:10334000000F53D110BDFFF745FF2046FFF744FFA4
:103350005CE72046FFF73EFF2046FFF73DFF6EE7A4
:103360002046FFF737FF2046FFF736FF7FE720466E
:10337000FFF730FF2046FFF72FFF90E76FF00102C5
:103380001A61204601F056FB94E76FF080021A6143
:10339000204600F09AF996E76FF480721A61204691
:1033A00000F094F998E76FF040021A612046FFF7A9
:1033B00014FF9AE76FF020021A61204600F084F9AA
:1033C0009CE76FF480121A61204600F080F99EE7B6
:1033D0006FF400121A61204600F07AF9A0E76FF44A
:1033E00080021A61204600F074F9A2E76FF400022F
:1033F0001A61204600F06EF9A4E7000003682C4A29
:1034000090420ED0B0F1804F0BD0A2F59432904292
:1034100007D002F58062904203D002F596329042C6
:1034200003D123F070034A681343214A90421AD013
:10343000B0F1804F17D0A2F59432904213D002F52C
:10344000806290420FD002F5963290420BD002F586
:103450004062904207D002F58062904203D002F5AC
:103460008062904203D123F44073CA68134323F06F
:1034700080034A69134303608B68C3620B688362ED
:103480000B4B98420FD003F5006398420BD003F525
:103490004063984207D003F58063984203D003F558
:1034A0008063984201D10B69036301234361704734
:1034B000002C014060B310B5044690F83D3013B3C2
:1034C000022384F83D30214651F8040BFFF796FFA4
:1034D000012384F8483084F83E3084F83F3084F883
:1034E000403084F8413084F8423084F8433084F826
:1034F000443084F8453084F8463084F8473084F806
:103500003D30002010BD80F83C3001F007FCD7E7CB
:103510000120704710B4846824F47F4C42EA0322EF
:103520000A4342EA0C02826010BC704790F83C30BB
:10353000012B77D010B50446012380F83C300223DC
:1035400080F83D3002689068374B034093600B6809
:10355000602B53D00ED9B3F5005F43D02DD9334A39
:10356000934225D037D9324A934221D03032934208
:103570001ED013E0402B4BD00BD9502B0ED1CA6874
:1035800049682068FFF7B4FD50212068FFF7D5FD9A
:1035900004E0202B0CD008D9302B09D0012384F86B
:1035A0003D30002084F83C0010BD0BB1102BF5D14C
:1035B00019462068FFF7C1FDF0E7702BEED1CB680C
:1035C0004A6889682068FFF7A5FF2268936843F07E
:1035D00077039360E2E7B3F1101FE9D0103A93420A
:1035E000E6D0DBE7CB684A6889682068FFF792FF7E
:1035F0002268936843F480439360CFE7CA684968C0
:103600002068FFF787FD60212068FFF796FDC5E77A
:10361000CA6849682068FFF76BFD40212068FFF702
:103620008CFDBBE7022070478800CEFF3000100001
:103630004000100090F83C30012B40D030B4012302
:1036400080F83C30022380F83D300268536894686B
:103650001C4DAA4203D005F50065AA4203D123F40C
:1036600070034D682B4323F0007323F070030D6843
:103670002B4353600368134A934212D0B3F1804F37
:103680000FD0A2F5943293420BD002F580629342A0
:1036900007D002F59632934203D002F5406293427E
:1036A00004D124F080048A6814439C60012380F8CC
:1036B0003D30002380F83C30184630BC7047022073
:1036C000704700BF002C014070477047704770473B
:1036D0007047704770470268136823F49073136053
:1036E0000268936823F0805323F001039360C36E54
:1036F000012B06D02023C0F888300023C36603675F
:1037000070470268136823F010031360F2E77047F4
:1037100008B501680A6822F040020A602022C0F859
:10372000842000224267FFF7F2FF08BD704708B50A
:10373000806A0023A0F85E30A0F85630FFF7F6FF4D
:1037400008BD704770B504460168CB6908688D688C
:1037500040F60F021A4008D113F0200F05D010F0E8
:10376000200F34D115F0805F31D12AB1A84A2A4008
:1037700033D1A84E304230D1E26E012A00F0BB8036
:1037800013F4801F03D015F4800F40F0278113F04D
:10379000800F07D010F0800F40F0278115F4000F44
:1037A00040F0238113F0400F03D010F0400F40F0A1
:1037B000238113F4000F03D010F0804F40F02081DC
:1037C00013F0807F02D00028C0F21E8170BD236FED
:1037D000002BFBD020469847F8E713F0010F09D0E3
:1037E00010F4807F06D001260E62D4F88C1031438D
:1037F000C4F88C1013F0020F0BD015F0010F08D095
:10380000216802260E62D4F88C1041F00401C4F83D
:103810008C1013F0040F0BD015F0010F08D02168A5
:1038200004260E62D4F88C1041F00201C4F88C100A
:1038300013F0080F0BD010F0200F00D13AB122681E
:1038400008211162D4F88C200A43C4F88C2013F4A8
:10385000006F0CD010F0806F09D022684FF4006127
:103860001162D4F88C2042F02002C4F88C20D4F8E5
:103870008C20002AAAD013F0200F09D010F0200FBE
:1038800002D115F0805F03D0236F0BB1204698471B
:10389000D4F88C2023689B6813F0400F02D112F0FB
:1038A000280F21D02046FFF716FF23689A6812F0F0
:1038B000400F15D09A6822F040029A60E36F5BB126
:1038C000554A9A63E06FFEF7E9FC00283FF47EAFAB
:1038D000E06F836B984779E72046FFF727FF75E78E
:1038E0002046FFF723FF71E72046FFF71FFF002365
:1038F000C4F88C306AE713F0100F3FF441AF10F0BA
:10390000100F3FF43DAF10230B622268936813F051
:10391000400F39D0E16F0B685B689BB2002B3FF41E
:1039200055AFB4F85C0098427FF650AFA4F85E3013
:103930000B681B6813F0200F0AD0B4F85C10B4F8C1
:103940005E309BB2C91A89B22046FFF7FAFE3DE706
:10395000136823F4807313602268936823F00103D3
:1039600093602268936823F0400393602023C4F897
:1039700088300023E3662268136823F01003136085
:10398000E06FFEF755FCD8E7B4F85C10B4F85E3091
:103990009BB2C91A89B2B4F85E309BB2002B3FF4D7
:1039A00015AF00293FF412AF136823F4907313602E
:1039B0002268936823F0805323F00103936020234F
:1039C000C4F888300023E36623672268136823F075
:1039D000100313602046FFF7B4FEF7E64FF48013A0
:1039E0000B62204600F002FEF0E6636F002B3FF40E
:1039F000EDAE20469847E9E62046FFF789FEE5E66A
:103A0000204600F0F5FDE1E6204600F0F0FDDDE6A1
:103A100001000010200100042F37000810B50446F3
:103A2000B0F86030D0F88820222A05D00268936967
:103A300043F00803936110BD0268516ADBB2826DE6
:103A40000B401370836D01338365B0F85E309BB219
:103A5000013B9BB2A0F85E30B0F85E309BB2002B09
:103A6000E9D10268136823F49073136002689368C5
:103A700023F0010393602023C0F8883000230367FC
:103A8000C36E012B04D000F06BFF0023E366D2E786
:103A90000268136823F010031360B0F85C10FFF79E
:103AA00050FEF2E710B50446B0F86020D0F8883038
:103AB000222B05D00268936943F00803936110BD7F
:103AC00003685B6A816D13400B80836D02338365ED
:103AD000B0F85E309BB2013B9BB2A0F85E30B0F80C
:103AE0005E309BB2002BEAD10268136823F4907316
:103AF00013600268936823F0010393602023C0F8E9
:103B0000883000230367C36E012B04D000F028FF28
:103B10000023E366D3E70268136823F01003136001
:103B2000B0F85C10FFF70DFEF2E700002DE9F84356
:103B3000B0F860500368D3F81C90D3F800809F68F9
:103B4000D0F88820222A05D09A6942F008029A61AA
:103B5000BDE8F8830446B0F8686020E0D4F88C3003
:103B6000002B63D1B4F85E309BB2C3B922681368EE
:103B700023F4807313602268936823F0805323F04A
:103B8000010393602023C4F8883000232367E36E89
:103B9000012B52D0204600F0E3FE0023E366002E06
:103BA00056D019F0200F53D02368596AEBB2A26D9A
:103BB0000B401370A36D0133A365B4F85E309BB264
:103BC000013B9BB2A4F85E302368D3F81C9019F037
:103BD000070FC7D019F0010F09D018F4807F06D065
:103BE00001221A62D4F88C301343C4F88C3019F0D7
:103BF000020F0BD017F0010F08D0236802221A62BF
:103C0000D4F88C3043F00403C4F88C3019F0040F5E
:103C1000A4D017F0010FA1D0236804221A62D4F8AF
:103C20008C3043F00203C4F88C3097E72046FFF74E
:103C30007DFD0023C4F88C3094E72268136823F0DC
:103C400010031360B4F85C102046FFF77AFDA4E778
:103C5000B4F85E309BB2002B3FF47AAFB4F8682022
:103C60009A427FF675AF2268936823F08053936081
:103C7000034B23672268136843F02003136067E750
:103C80001D3A00082DE9F843B0F860500368D3F8F6
:103C90001C90D3F800809F68D0F88820222A05D095
:103CA0009A6942F008029A61BDE8F8830446B0F8C8
:103CB000686020E0D4F88C30002B62D1B4F85E301C
:103CC0009BB2C3B92268136823F48073136022681F
:103CD000936823F0805323F0010393602023C4F8FA
:103CE000883000232367E36E012B51D0204600F07B
:103CF00037FE0023E366002E55D019F0200F52D076
:103D000023685B6AA26D2B401380A36D0233A36509
:103D1000B4F85E309BB2013B9BB2A4F85E302368DE
:103D2000D3F81C9019F0070FC8D019F0010F09D073
:103D300018F4807F06D001221A62D4F88C30134325
:103D4000C4F88C3019F0020F0BD017F0010F08D017
:103D5000236802221A62D4F88C3043F00403C4F8BA
:103D60008C3019F0040FA5D017F0010FA2D02368F2
:103D700004221A62D4F88C3043F00203C4F88C3069
:103D800098E72046FFF7D2FC0023C4F88C3095E773
:103D90002268136823F010031360B4F85C10204607
:103DA000FFF7CFFCA5E7B4F85E309BB2002B3FF4E1
:103DB0007BAFB4F868209A427FF676AF22689368AA
:103DC00023F080539360044B23672268136843F009
:103DD0002003136068E700BFA53A000870B50446E9
:103DE000016883680269134342691343C26913433C
:103DF00008688B4A024013430B602268536823F41F
:103E00004053E1680B435360A1692268854B9A4295
:103E100001D0236A1943936823F06E4323F430637F
:103E20000B4393602268D36A23F00F03616A0B434C
:103E3000D36223687C4A934223D07C4A934234D095
:103E40007B4A93424AD07B4A934259D0754A934267
:103E500068D0102273498B4200F09580E069B0F57C
:103E6000004F00F0D280082A00F24F81DFE812F004
:103E70001201340110014D0137014D014D014D0179
:103E80003A0102F55842D2F8882002F00302032AD0
:103E900009D8DFE802F002045C060122DAE7042216
:103EA000D8E70822D6E71022D4E702F5E632D2F8A6
:103EB000882002F00C020C2A0ED8DFE802F0070D71
:103EC0000D0D090D0D0D4A0D0D0D0B000022C1E762
:103ED0000422BFE70822BDE71022BBE702F5E43267
:103EE000D2F8882002F03002202A34D004D8A2B3BD
:103EF000102A34D10422ADE7302A32D10822A9E7B2
:103F000002F5E232D2F8882002F0C002802A2AD0DC
:103F100004D852B3402A2AD104229BE7C02A28D1D0
:103F2000082297E702F5C832D2F8882002F44062EE
:103F3000B2F5006F1FD005D8FAB1B2F5806F1ED16F
:103F4000042287E7B2F5406F1BD1082282E70222E4
:103F500080E702227EE702227CE700227AE7102235
:103F600078E7102276E7022274E7002272E7102237
:103F700070E710226EE702226CE700226AE7102247
:103F800068E7102266E7082A00F2AF80DFE802F057
:103F900008AD3BAD38ADADAD05004FF4004004E0D9
:103FA000FEF710FF002800F0A280626A224B33F86F
:103FB0001220B0FBF2F3656805EB4501994200F26F
:103FC0009880B3EB053F00F29680002633463146D9
:103FD000FCF736F9090241EA106100026B08C018CB
:103FE0002A46334641F10001FCF72AF9A0F5407258
:103FF000124B9A4200F281802368D860304662E01A
:10400000FEF79AFDCEE70E48CFE7082A77D8DFE81B
:1040100002F0193905763C7676761D00084815E0E1
:10402000F369FFCF008000400038014000440040A9
:1040300000480040004C004098AF0008FFFC0F0013
:104040000024F400FEF7BEFE00285AD0626A324B0C
:1040500033F81230B0FBF3F06268530803EB400012
:10406000B0FBF2F080B2A0F110024FF6EF739A426B
:1040700049D820F00F03C0F3420018432368D860EA
:10408000002020E0FEF7B0FEDEE7FEF755FDDBE79F
:10409000224803E0FEF796FE002838D0626A1E4BE5
:1040A00033F81230B0FBF3F0636800EB5300B0FB61
:1040B000F3F080B2A0F110024FF6EF739A4228D8C5
:1040C0002368D86000200123A4F86A30A4F868307F
:1040D00000232367636770BDFEF786FEDCE7FEF70B
:1040E0002BFDD9E74FF40040D8E70120EBE7002093
:1040F000E9E70120E7E70120E5E70120E3E7012008
:10410000E1E70020DFE70120DDE70120DBE7002019
:10411000D9E70120D7E700BF98AF00080024F400DA
:10412000836A13F0010F06D00268536823F400334A
:10413000C16A0B435360836A13F0020F06D0026812
:10414000536823F48033016B0B435360836A13F08D
:10415000040F06D00268536823F48023416B0B439D
:104160005360836A13F0080F06D00268536823F483
:104170000043816B0B435360836A13F0100F06D02A
:104180000268936823F48053C16B0B439360836A86
:1041900013F0200F06D00268936823F40053016CDB
:1041A0000B439360836A13F0400F0AD00268536890
:1041B00023F48013416C0B435360436CB3F5801FB1
:1041C0000BD0836A13F0800F06D00268536823F483
:1041D0000023C16C0B43536070470268536823F49B
:1041E000C003816C0B435360EBE72DE9F8430546B0
:1041F0000F4616469946DDF820802C68E46937EAB8
:1042000004030CBF4FF0010C4FF0000CB44541D13A
:10421000B8F1FF3FF1D0FCF7D9FFA0EB0900404512
:1042200024D8B8F1000F21D02B681A6812F0040FBF
:10423000E3D0DA6912F4006FDFD04FF400621A6243
:104240002A68136823F4D07313602A68936823F0F4
:10425000010393602023C5F88430C5F88830C5F881
:104260008C30002385F88030032014E02A6813681E
:1042700023F4D07313602A68936823F001039360DA
:104280002023C5F88430C5F88830002385F88030B5
:10429000032000E00020BDE8F8832DE9F04182B062
:1042A0001E46D0F88430202B58D104460D46904647
:1042B000002957D0002A57D090F88030012B55D0D4
:1042C000012380F880300023C0F88C302123C0F80F
:1042D0008430FCF77BFF0746A4F85480A4F856808E
:1042E000A368B3F5805F05D04FF00008002384F881
:1042F000803014E0236913B14FF00008F6E7A846B8
:104300000025F3E738F8023B2268C3F30803936201
:10431000B4F8562092B2013A92B2A4F85620B4F8FA
:1043200056309BB273B100963B4600228021204656
:10433000FFF75BFFE0B9002DE4D015F8012B2368EF
:104340009A62E5E700963B46002240212046FFF7AF
:104350004CFF78B92023C4F8843000E0022002B07A
:10436000BDE8F0810120FAE70120F8E70220F6E736
:104370000320F4E70320F2E730B583B004460023BE
:10438000C0F88C30FCF722FF05462268126812F054
:10439000080F0FD123681B6813F0040F18D12023D6
:1043A000C4F88430C4F888300020E06684F88000C7
:1043B00003B030BD6FF07E430093034600224FF4FC
:1043C00000112046FFF711FF0028E3D00320EFE79C
:1043D0006FF07E4300932B4600224FF4800120466D
:1043E000FFF703FF0028DAD00320E1E778B310B528
:1043F0000446D0F884300BB32423C4F884302268F8
:10440000136823F0010313602046FFF7E7FC01283F
:1044100013D0A36ABBB92268536823F49043536056
:104420002268936823F02A0393602268136843F09C
:10443000010313602046FFF79FFF10BD80F8803016
:1044400000F0C0FCD8E72046FFF76AFEE3E7012052
:10445000704700008165A0F85C20A0F85E20002372
:1044600003678368B3F5805F06D0A3B9036973B9A6
:10447000FF23A0F8603014E0036923B940F2FF1372
:10448000A0F860300DE0FF23A0F8603009E07F2342
:10449000A0F8603005E0B3F1805F21D00023A0F8E0
:1044A00060300023C0F88C302223C0F888300168C7
:1044B0008B6843F001038B60436EB3F1005F19D04A
:1044C0008368B3F5805F33D01C4B0367002380F80B
:1044D00080300268136843F49073136000207047C3
:1044E00003691BB97F23A0F86030DAE73F23A0F807
:1044F0006030D6E7B0F868309342E1D88368B3F50E
:10450000805F0FD00E4B0367002380F88030026875
:10451000136843F4807313600268936843F0805318
:104520009360DBE70369002BECD1064B0367EBE7F5
:104530000369002BC8D1044B0367C7E71D3A000885
:104540002D3B0008853C0008A53A0008D0F88830CB
:10455000202B1AD1D9B1E2B190F88030012B1AD0BA
:1045600010B5012380F880300023C36603680B4C2C
:10457000A34207D05C6814F4000F03D01C6844F019
:1045800080641C60FFF766FF10BD022070470120A9
:104590007047012070470220704700BF0080004034
:1045A000436E2BB90123A0F86A30A0F86830704739
:1045B00030B403689A68C2F342629968490F094DA2
:1045C0006B5CDB00084C615C93FBF1F3A0F86A3094
:1045D000AB5CDB00A25C93FBF2F3A0F8683030BC6C
:1045E000704700BFB8AF0008B0AF00087047704711
:1045F000704790F88030012B18D0012380F880306C
:104600002423C0F8843003681A68196821F0010176
:10461000196022F000520023436601680A602022DC
:10462000C0F8842080F88030184670470220704718
:1046300038B590F88030012B1DD00446012380F856
:1046400080302423C0F8843003681D681A6822F083
:1046500001021A600268936823F060431943916075
:10466000FFF79EFF23681D602023C4F884300020DC
:1046700084F8800038BD0220FCE738B590F880301F
:10468000012B1DD00446012380F880302423C0F87C
:10469000843003681D681A6822F001021A600268FB
:1046A000936823F0606319439160FFF779FF2368F3
:1046B0001D602023C4F88430002084F8800038BDB9
:1046C0000220FCE710B58CB0002409940A940B94E6
:1046D0002022214601A800F019FD27484FF0A043F1
:1046E00003604FF4403343608460C460046101237D
:1046F000436104228261047743770223036280F8D6
:104700002440C462046380F838404FF48053C3638C
:1047100080F84040FCF760FD10BB0023099309A915
:104720001548FDF78FFCF0B9144B01930623029353
:10473000002303937F2204920422059206930DEB3B
:1047400002010D48FCF7B8FF80B90D4B01930C2313
:10475000029301A90848FCF7AFFF50B90CB010BD97
:1047600000F086F9D9E700F083F9DDE700F080F981
:10477000EBE700F07DF9F1E7B01B00200008302ED8
:104780002000F01400B589B000230393049305932F
:10479000069307930368B3F1A04F02D009B05DF808
:1047A00004FB03F1704303F50433DA6C42F4005266
:1047B000DA64DA6C02F400520192019ADA6C42F087
:1047C0000202DA64DB6C03F002030293029B4FF4F3
:1047D000A04303930323049303A90648FDF79EFD1A
:1047E000002211461220FDF7C9FC1220FDF7FEFC45
:1047F000D4E700BF000400482DE9F0418AB000244E
:1048000005940694079408940994444BDA6C42F09A
:104810000402DA64DA6C02F004020092009ADA6CA4
:1048200042F02002DA64DA6C02F020020192019A6E
:10483000DA6C42F00102DA64DA6C02F001020292F0
:10484000029ADA6C42F00202DA64DA6C02F00202D6
:104850000392039ADA6C42F00802DA64DB6C03F02C
:1048600008030493049BDFF8B88022464FF6FF71DB
:104870004046FDF72DFE22464FF480714FF09040E8
:10488000FDF726FE274F012204213846FDF720FEC2
:10489000254E22464FF448713046FDF719FE4FF67B
:1048A000FF730593012506950795089405A94046D1
:1048B000FDF734FD05951D4B0693079505A94FF0AF
:1048C0009040FDF72BFD072305930694079505A956
:1048D0003046FDF723FD4FF4807305930695079549
:1048E000089405A94FF09040FDF718FD04230593A7
:1048F000069502230793089405A93846FDF70EFD97
:104900004FF44873059306950795089405A930461A
:10491000FDF704FD0AB0BDE8F08100BF00100240C1
:1049200000080048000C0048000400480000211066
:1049300010B5084C2046FDF70BFB2046FCF76CFD3C
:104940000146054B18604FF47A7304220348FFF7C1
:10495000A4FC10BDB01B00201C1C00208C1C0020DF
:1049600008B50268134B9A4200D008BD124B1B7861
:10497000A12B09D0104B1B78A22B10D001220E497D
:104980000E48FFF7E3FDF0E70D4B01221A7042F2EB
:10499000107308220B490948FFF77FFCEAE7084B30
:1049A00000221A7042F21073072207490348FFF7EA
:1049B00074FCE3E700380140201C00208C1C002020
:1049C000211C0020C0AF0008C8AF000810B5154C6E
:1049D000154B1B78154A12781549204600F0E8FB64
:1049E0002146182000F026FB2146302000F022FB53
:1049F0002146482000F01EFB2146602000F01AFBF3
:104A00002146782000F016FB2146902000F012FB92
:104A10002146A82000F00EFB2146C02000F00AFB32
:104A200010BD00BF241C0020090000200A00002047
:104A3000D0AF000808B5094B834200D008BD084A32
:104A4000137801331370FFF7C1FF064B197806483E
:104A500000F02CFB0548FDF76DF9EFE7401C002046
:104A60000A000020211C002008000020B01B0020AC
:104A700072B6FEE710B5A4B03822002116A800F0E7
:104A800045FB002411941294139414941594442219
:104A90002146684600F03AFB2046FDF71FFD012342
:104AA00016934FF48033179302231D9303221E9213
:104AB00006221F925522209221932293239316A817
:104AC000FDF7C6FDD0B90F231193032312930023E2
:104AD000139314931593042111A8FEF771F878B974
:104AE00048F201030093002301934FF000530F930A
:104AF0006846FEF78BF928B924B010BDFFF7B8FF60
:104B0000FFF7B6FFFFF7B4FF08B5FCF743FBFFF76D
:104B1000B1FFFFF771FE00F0C5F800F01FF9FFF7D5
:104B2000D1FD0C48FEF714FB00F030FA002000F035
:104B300054FA4FF6FF7000F063FA002000F066FAB6
:104B40007F210548FDF72AFA012204490448FFF7AE
:104B5000FDFCFEE7401C0020B01B0020201C0020B4
:104B60008C1C002000B583B00B4B1A6E42F0010282
:104B70001A661A6E02F001020092009A9A6D42F0D3
:104B800080529A659B6D03F080530193019BFDF762
:104B90002BFD03B05DF804FB00100240FEE7FEE7CA
:104BA000FEE7FEE7FEE770477047704708B5FCF781
:104BB00001FB08BD08B50248FCF734FC08BD00BF86
:104BC000B01B002008B50248FEF7BCFD08BD00BFC1
:104BD0008C1C002008B50248FEF700FB08BD00BF92
:104BE000401C00200120704708B500F065FA16232C
:104BF00003604FF0FF3008BD08B54FF0FF31FFF7FD
:104C0000F3FFFEE770B50C461646002506E0AFF34D
:104C10000080214601F8010B01350C46B542F6DB58
:104C2000304670BD70B50C461646002504E014F8F9
:104C3000010BAFF300800135B542F8DB304670BDA3
:104C40004FF0FF3070474FF400534B600020704727
:104C5000012070470020704710B503460C4A0D49EB
:104C60000D48006840B10C4800680344521A934252
:104C700006D8094A136010BD0748084C0460F2E7E3
:104C800000F01AFA0C2303604FF0FF30F3E700BF87
:104C900000800020000400003C1C0020681D002053
:104CA0007047000000B589B0002304930593069374
:104CB00007930193029303931648174A026044F244
:104CC00067224260836042F20F72C26003614361F7
:104CD0008361FEF7EFFB98B94FF48053049304A966
:104CE0000C48FEF723FC70B9002301930293039351
:104CF00001A90848FEF79EFC40B909B05DF804FB25
:104D0000FFF7B6FEE8E7FFF7B3FEEDE7FFF7B0FE0B
:104D1000F3E700BF401C00200034014002680E4B46
:104D20009A4200D0704700B583B003F55C431A6E19
:104D300042F400521A661B6E03F400530193019B68
:104D4000002211462C20FDF719FA2C20FDF74EFA0F
:104D500003B05DF804FB00BF0034014008B51748FC
:104D6000174B03604FF4E133436000238360C3605B
:104D700003610C2242618361C36103624362836207
:104D8000FFF734FB70B900210C48FFF751FC60B904
:104D900000210A48FFF771FC50B90848FFF729FCC9
:104DA00048B908BDFFF764FEEDE7FFF761FEEFE7E6
:104DB000FFF75EFEF1E7FFF75BFEF2E78C1C0020D9
:104DC0000038014000B589B0002303930493059394
:104DD000069307930268174B9A4202D009B05DF818
:104DE00004FB03F558431A6E42F480421A661A6EA9
:104DF00002F480420192019ADA6C42F00102DA6414
:104E0000DB6C03F001030293029B4FF4C063039336
:104E1000022304930723079303A94FF09040FDF763
:104E20007DFA002211462520FDF7A8F92520FDF77F
:104E3000DDF9D3E7003801400D4885460D480E499D
:104E40000E4A002302E0D458C4500433C4188C42E4
:104E5000F9D30B4A0B4C002301E013600432A24249
:104E6000FBD3FFF71DFF00F02DF9FFF74DFEFEE726
:104E70000080002000000020901B002014B40008D7
:104E8000901B0020681D0020FEE7000038B5044696
:104E90000D4601224FF480714FF09040FDF718FB52
:104EA00000224FF400710F48FDF712FB0E4B5D61BD
:104EB0008CB900224FF480710A48FDF709FB094CB8
:104EC000002220212046FDF703FB0122202120465D
:104ED000FDF7FEFA38BD01224FF480710148FDF75D
:104EE000F7FAECE7000400480008004810B50C464B
:104EF00001460020FFF7CAFF21460120FFF7C6FF49
:104F000010BD10B50C4601462020FFF7EFFF2146EB
:104F10002120FFF7EBFF10BD08B522210020FFF78D
:104F2000B5FF08BD08B501460120FFF7AFFF08BD7A
:104F30002DE9F041074688461646002516E0114B3C
:104F40001888FFF7EFFF0134E4B20F2C0AD836F8C7
:104F50001530234113F0010FF1D10B4B1888FFF7E7
:104F6000E1FFF0E70137FFB20135EDB2172D07D8A9
:104F700041463846FFF7C5FFFFF7CEFF0024E4E7C0
:104F8000BDE8F0811C1D0020E011002008B50121C2
:104F90000020FFF7ABFF41F208010320FFF7A6FF57
:104FA00040F273110720FFF7A1FF41F2900110209A
:104FB000FFF79CFF40F227211120FFF797FF1D21EB
:104FC0001220FFF793FF4FF41C516020FFF78EFF74
:104FD00001216120FFF78AFF08BD38B50546002191
:104FE0000846FFF78EFFFFF797FF002403E02846EF
:104FF000FFF798FF0134B4F5963FF8D338BD0000B1
:10500000014B1880704700BF1C1D0020014B188009
:10501000704700BFE011002008B5203AD2B202EB81
:105020004202034B03EB0212FFF782FF08BD00BFF1
:1050300010000020F8B507460E4640F23F15002448
:1050400008E029463846FFF7E7FF103DADB20136CC
:105050000134E4B232780AB1132CF2D9F8BD000061
:1050600001290AD00278D30943EA42030370037886
:10507000DB431B02044A536170470278530843EA3A
:10508000C2130370F3E700BF0008004810B5064CD8
:10509000012204212046FDF71BFA002204212046AC
:1050A000FDF716FA10BD00BF000C004808B5FFF769
:1050B000D7FFFFF7EBFF08BD014B1868704700BF33
:1050C000E411002070B50D4E0D4D761BB61006D0C4
:1050D000002455F8043B01349847A642F9D1094E03
:1050E000094D761B05F04CFFB61006D0002455F88C
:1050F000043B01349847A642F9D170BD08B40008BA
:1051000008B4000810B4000808B40008830730B5DC
:1051100048D0541E002A3FD0CAB2034601E0013CE9
:105120003AD303F8012B9D07F9D1032C2DD9CDB229
:1051300045EA05250F2C45EA054536D9A4F11002AC
:1051400022F00F0C03F1200EE6444FEA121C03F18B
:10515000100242E9045542E9025510327245F8D175
:105160000CF1010214F00C0F03EB021204F00F0C0F
:1051700013D0ACF1040323F003030433134442F8C7
:10518000045B9342FBD10CF003042CB1CAB21C4463
:1051900003F8012B9C42FBD130BD64461346002C22
:1051A000F4D1F9E703461446BFE71A46A446E0E700
:1051B0000EB410B59DB06FF000411FABCDE90601F4
:1051C0000491094953F8042B0290084C0868019394
:1051D00002A9059400F00CF8029B00221A701DB081
:1051E000BDE8104003B07047E41100200802FFFF43
:1051F0002DE9F04FD5B00C460C9191460E930A90D4
:1052000002F084FE036817931846FBF799FAA38906
:105210001690190603D52369002B00F08B87002414
:105220002BAB4D46CDE92944CDE91944CDE91B44CA
:105230001294289398461894002308940024CDE9EA
:1052400014342B78002B00F0DD81AA4604E01AF814
:10525000013F002B00F01681252BF8D1BAEB050693
:1052600040F014819AF80030002B00F0CB8100232D
:105270004FF0FF329AF801608DF8833009930AF1FC
:10528000010A07921F462B244FF020090AF1010A58
:10529000A6F120035A2B00F22D81DFE813F0BA02A9
:1052A0002B012B01B5022B012B012B016A002B01D5
:1052B0002B014F02E3022B015A02C9022B01C40247
:1052C0005B005B005B005B005B005B005B005B0006
:1052D0005B002B012B012B012B012B012B012B013F
:1052E000BF012B011A028600BF01BF01BF012B01C4
:1052F0002B012B012B01B0022B012B01C3002B0131
:105300002B012B0124022B015F022B012B013C07F7
:105310002B012B012B012B012B012B012B012B012D
:10532000BF012B011A028800BF01BF01BF01A30208
:10533000880081002B0196022B018202C5007002B9
:1053400081002B0124027E0039072B012B01190754
:105350002B017E00A6F1300300221AF8016B02EB4C
:10536000820203EB4202A6F13003092BF5D9099220
:105370008EE7DDF828B0584602F0C8FD43681B935D
:105380001846FBF7DDF91C900646584602F0BEFDB4
:1053900083681993002E40F07A869AF8006075E7CA
:1053A0009AF8006047F0200770E747F01007BA0648
:1053B0000E9B40F18081073323F007031A465B6898
:1053C00052F8084B0E929946002BC0F25F85079B5E
:1053D000013301F01F8054EA090327F0800B00F02D
:1053E000E3840A2C79F1000380F0818730340123B3
:1053F0008DF84F415F460B930DF24F1507990B98AF
:105400009DF8832081424FF00003B8BF01460D9301
:1054100006910F9313931093002A7CD0069B0133BF
:10542000069378E047F0100717F0200900F0348168
:105430000E9B073323F00703D3F8049053F8084B6F
:105440000E9327F4806B002300228DF88320079AA7
:10545000511C00F00D8254EA09012BF0800740F046
:105460000682002A41F01080002B40F0A2841BF03D
:1054700001030B9300F0378530238DF84F310DF287
:105480004F15BBE7BAEB050600F0BC802A9B3344FE
:105490002A93299B0133072BC8E90056299305DC81
:1054A00008F10808089B33440893DBE60C990A9836
:1054B00028AA03F019FC80B90DF1AC08F2E70C99A9
:1054C0000A9828AA03F010FC002800F08C800D9B9D
:1054D0001BB10D990A9802F013FC0C9B9B8913F0E9
:1054E000400F089B18BF4FF0FF330893089855B042
:1054F000BDE8F08F002E00F0858000228DF8EC6072
:105500008DF88320012306930D920B9307920F923F
:10551000139210923BAD17F0020302D006990231AC
:10552000069117F0840B07D109990698A1EB0009A1
:10553000B9F1000F00F315832A9C8AB1299A0DF165
:10554000830101320134C8F80010072A4FF001012D
:105550002A942992C8F8041000F3468308F1080839
:1055600083B1299B21AA01330234C8F80020072BFC
:105570004FF002022A942993C8F8042000F34883CC
:1055800008F10808BBF1800F00F00E82079B0B9A10
:10559000A3EB020BBBF1000F00F34F82FB0500F100
:1055A000A5810B9BC8F804301C44299BC8F8005007
:1055B0000133072B2A94299300F3C78208F10808C6
:1055C0007B0705D5099B069A9D1A002D00F32C83B5
:1055D000DDE9083206998A42ACBF9B185B18089334
:1055E000002C7FF46CAF002329930D9B1BB10D9908
:1055F0000A9802F085FB0DF1AC0855462B78002B7C
:105600007FF423AE2A9B002B3FF467AF0C9C0A98D3
:1056100028AA214603F068FBA38960E70E9B0733A5
:1056200023F00702F2E80234CDE91434DDE9143442
:1056300024F000440E92994618462146A74B4FF09D
:10564000FF32FBF741FD002840F06284A34B48463F
:1056500021464FF0FF32FBF719FD002840F0588437
:10566000DDE9140100220023FBF706FD002840F0CD
:10567000AD879DF883209A4D9A4B27F08007032130
:10568000472EC8BF1D4600230D9306910B9107932B
:105690000F9313931093BFE617F0100340F02E847E
:1056A00017F0400200F054870E9A52F8044B0E9205
:1056B0009946A4B2C5E653F8044B0E93FB0600F1DD
:1056C00018847D0640F1128444F3C0394B4624B25D
:1056D0007AE60E9B002253F8041B8DF883208DF888
:1056E000EC100E930EE70E9C079B54F8045B4FF0F2
:1056F00000098DF88390002D00F0D5865A1C00F02B
:1057000052851A4649462846FAF722FF0D9000288E
:1057100001F057800D9BCDF81C905B1B0B930E94F2
:1057200023EAE3739DF883200693CDF83490CDF8F7
:105730003C90CDF84C90CDF840906DE60E9B53F820
:10574000042B0992002A80F2C983099A0E935242CF
:1057500009929AF8006047F0040797E547F0100BAC
:105760001BF0200900F081830E9B073323F0070311
:10577000D3F8049053F8084B0E93012364E60E9B74
:1057800053F8044B0E93302378268DF88430564B13
:10579000189347F0020B8DF885604FF00009022343
:1057A00052E6BD0600F18284FC0600F1738678069D
:1057B00000F13C87B90540F16D860E9B089953F8BE
:1057C000042B0E931170554618E79AF800606C2E62
:1057D00003BF9AF8016047F020070AF1010A47F079
:1057E000100753E59AF80060682E03BF9AF801602D
:1057F00047F400770AF1010A47F0400746E59AF8B6
:10580000006047F0080741E59AF8006047F001079B
:105810003CE59DF88330002B7FF4BFAD9AF8006023
:105820008DF8839032E59AF8006047F080072DE507
:10583000524612F8016B2A2E01F0CD81A6F13003F9
:10584000092B924698BF002201F288801AF8016B5A
:1058500002EB820203EB4202A6F13003092BF5D9D9
:10586000079215E59AF800608DF883400EE5BB4677
:10587000012B3FF4B6AD022B54AD12D1189A04F0AF
:105880000F032409D35C05F8013D44EA09744FEA8B
:10589000191954EA0903F2D154AB5B1B5F460B9311
:1058A000ACE504F00703E40844EA49744FEAD90977
:1058B000303354EA09012A4605F8013DF1D11BF0C5
:1058C000010FE9D0302BE7D03023023A05F8013C34
:1058D00054AB9B1A5F460B9315468FE5FFFFEF7F96
:1058E00004B0000808B0000814B00008652E40F3AA
:1058F000E680DDE9140100220023FBF7B3FB00285A
:1059000000F0CD81299BBF4AC8F800200133013443
:105910000122072B2A942993C8F8042000F37D85DF
:1059200008F10808229B129A934280F2D382169BB8
:10593000179A1C44C8E90023299B2A940133072B9A
:10594000299300F3EB8308F10808129B5D1E002DDC
:105950007FF736AE102D299BDFF8AC9240F36E85B1
:1059600049462246B946DDF828B00C9C10260F4661
:1059700005E008F10808103D102D40F35B85013368
:105980001032072BC8E90076CDE92932F1DD28AACB
:105990002146584603F0A8F900287FF498ADDDE9C8
:1059A00029320DF1AC08E6E7099B069AA3EB020B3E
:1059B000BBF1000F7FF7EAADBBF1100F299ADFF8BA
:1059C00048922CDD1D9621464E460C9CDDF8289011
:1059D000102306E0ABF1100BBBF1100F08F1080823
:1059E0001ADD01321031072AC8E90063CDE9292107
:1059F000F0DD28AA214648460DF1AC0803F074F901
:105A000000287FF464ADABF1100BBBF1100FDDE9A2
:105A100029214FF01003E4DCB1461D9E0C460132F3
:105A20005C44072ACDE92924C8F80090C8F804B0DE
:105A300000F31D8508F10808A8E5BBF1100F299AAD
:105A4000DFF8C4912DDD41462046A8464C460C9D0A
:105A5000DDF82890102306E0ABF1100BBBF1100F1E
:105A600001F1080119DD01321030072AC1E90043B4
:105A7000CDE92920F0DD28AA2946484603F034F96B
:105A800000287FF424ADABF1100BBBF1100FDDE962
:105A900029202BA94FF01003E5DC4546A146884696
:105AA000044601325C44072ACDE92924C8F8009055
:105AB000C8F804B000F3CC8108F108086EE5129B29
:105AC000012B40F37C81299EC8F800500136013437
:105AD0000123072E2A942996C8F8043000F3E081A8
:105AE00008F10808169B179A01361C44072EC8E9CE
:105AF0000023CDE9296400F3E08108F10808DDE91D
