:020000040800F2
:10000000B0190020C90200087B340008E32E000864
:1000100079340008AD090008753F000800000000B1
:100020000000000000000000000000007F34000815
:10003000AF090008000000007D340008813400088A
:10004000E3020008E3020008E3020008E3020008FC
:10005000E3020008E3020008E3020008E3020008EC
:10006000E3020008E3020008E3020008E3020008DC
:10007000E3020008E3020008E3020008E3020008CC
:10008000E302000800000000D9070008E3020008AE
:10009000E3020008E3020008E3020008E3020008AC
:1000A000E3020008E3020008E3020008E30200089C
:1000B000E3020008E3020008E3020008E30200088C
:1000C000E3020008E3020008E3020008E30200087C
:1000D000E3020008693F0008E3020008E3020008A9
:1000E000E3020008E3020008E3020008E30200085C
:1000F0001D350008E3020008E302000800000000CC
:1001000000000000E302000800000000E302000815
:10011000E302000800000000E3020008E302000818
:10012000E3020008E3020008E3020008E30200081B
:10013000E30200080000000000000000E3020008E5
:10014000E3020008E30200080000000000000000D5
:10015000000000000000000000000000000000009F
:10016000000000000000000000000000E3020008A2
:10017000E302000800000000000000000000000092
:1001800000000000E3020008000000000000000082
:10019000000000000000000000000000000000005F
:1001A0000000000000000000E3020008E302000875
:1001B000E3020008E3020008E30200080000000078
:1001C00000000000E3020008000000000000000042
:1001D000E3020008E302000800F002F800F065F80E
:1001E0000AA090E8000C82448344AAF10107DA4592
:1001F00001D100F05AF8AFF2090EBAE80F0013F07F
:10020000010F18BFFB1A43F001031847503E0000CE
:10021000703E000010F8013B0A4413F0030408BFCD
:1002200010F8014B1D1108BF10F8015B641E05D0CA
:1002300010F8016B641E01F8016BF9D1002D15D087
:1002400010F8014B03F00C030C2BA1EB04040ABFC4
:1002500010F8013BA4EB8314A4EB032405F1010384
:1002600014F8016B5B1E01F8016BF9D5914238BFA0
:1002700010F8013BD1D3704700230024002500264D
:10028000103A28BF78C1FBD8520728BF30C148BFF9
:100290000B607047752900F0EB80002070471FB598
:1002A00003F0AEFE1FBD10B510BD00F05AFA1146A6
:1002B000FFF7F5FF03F076FE00F078FA03B4FFF7DE
:1002C000F2FF03BC00F080FA094880470948004764
:1002D000FEE7FEE7FEE7FEE7FEE7FEE7FEE7FEE7F6
:1002E000FEE7FEE704480549054A064B7047000053
:1002F0000D350008D9010008B0130020B019002006
:10030000B0150020B015002053EA020C00F06980FF
:100310002DE9F04B4FF00006002B1FBFB3FA83F519
:1003200003FA05F424FA05F65E4012BF1643B2FA4A
:1003300082F502FA05F4C5F120051EBF22FA05FC7C
:1003400044EA0C04203556EA044C4FEA144418BF22
:10035000641C4FF000084FF00009904271EB030C51
:1003600039D3002919BFB1FA81F701FA07F6B0FABB
:1003700080F700FA07F6C7F120071EBF20FA07FC36
:1003800046EA0C062037B6FBF4FCA7EB0507103F46
:1003900007F01F0BCBF120060CFA0BFB2CFA06F62C
:1003A00044BFB3460026202FA4BF5E464FF0000B8B
:1003B0005BEA060C08BF4FF0010B19EB0B09ABFB16
:1003C000027C48EB0608C01B06FB02CC0BFB03CCEF
:1003D00071EB0C01C1E70B46024641464846BDE8B9
:1003E000F08B13B54FF000004FF00001AFF3008029
:1003F000BDE81C40704700000FB41CB5074B06AAAF
:100400007B4469460090059800F093F90020694606
:1004100000F0A2F91CBC5DF814FB000055030000BD
:1004200070B5044685690068C10601D5302600E034
:100430002026C00707D070BDD4E90121304690477F
:10044000206A401C20626D1EF6D570BD70B5044652
:1004500085690078C00707D170BDD4E9012120204B
:100460009047206A401C20626D1EF6D570BD0000CA
:100470002DE9F0410646002410687529314616A57D
:1004800010D0AFF30080002802DA404213A507E045
:1004900031688A0701D512A502E0490704D511A5E4
:1004A000012401E0AFF3008000210A2206F12407B5
:1004B00009E0B0FBF2FCB0FBF2F302FB1C003030B1
:1004C00078541846491C0028F3D123462A46304662
:1004D000BDE8F04100F0CEB8000000002D000000A3
:1004E0002B000000200000002DE9F05F8946044643
:1004F0004FF0000ADFF824B1FB44C0F820A02046EA
:10050000E168884700287DD0252806D0D4E901215C
:100510009047206A401C2062F1E700255F46204694
:10052000E16888472028064607DB312E05D2B81936
:1005300010F8200C08B10543F1E7A80701D525F014
:100540000405C4F81CA00027C4F818A02A2E09D05E
:10055000304603F020FD38B304EB8708303EC8F87E
:10056000186019E059F8041B204604EB87029161DA
:10057000E1688847012F064618D1E069002820DA93
:1005800025F020051DE0D8F8180000EB800006EBF0
:1005900040003038C8F818002046E1688847064611
:1005A00003F0F9FC0028EED1012F0AD02E2E08D13D
:1005B0002046E16888477F1C0646022F45F020054B
:1005C000C4DBA069002803DA404245F00105A061C0
:1005D000E80701D025F01005A6B1A6F141001928C1
:1005E00002D8203645F400654A463146204625604B
:1005F0004D46FFF74FFE60B1012807D0ED1D25F0F5
:10060000070000E007E000F1080978E705F10409B8
:1006100075E730467AE7206ABDE8F09F4E3B000060
:100620004FF0000200B5134694469646203922BF8B
:10063000A0E80C50A0E80C50B1F12001BFF4F7AFD6
:10064000090728BFA0E80C5048BF0CC05DF804EBB8
:10065000890028BF40F8042B08BF704748BF20F826
:10066000022B11F0804F18BF00F8012B7047704724
:10067000704770472DE9F0470D469946924604466B
:1006800000F124080168880604D5E06921F0100112
:10069000216000E00120A84201DD471B00E00027A7
:1006A000A1697A1902EB0900081AA0612078C00636
:1006B00002D42046FFF7B4FE002608E0D4E9012169
:1006C0001AF806009047206A401C761C20624E45AE
:1006D000F4DB2078C0060AD52046FFF7A1FE06E02D
:1006E000D4E9012130209047206A401C2062381E46
:1006F000A7F10107F4DC07E0D4E9012118F80500AF
:100700009047206A401C2062281EA5F10105F3DCF9
:100710002046FFF79BFE2078000602D50220BDE8A8
:10072000F0870120FBE7000001694A1C026108789C
:10073000704700B58FB0CDE9013100210591054921
:100740007944CDE9031011466846FFF7CDFE0FB09E
:1007500000BD0000E5FFFFFF0A6802F8010B0A6018
:100760007047754600F02CF8AE46050069465346C2
:1007700020F00700854618B020B5FFF7B3FDBDE8AF
:1007800020404FF000064FF000074FF000084FF0F8
:10079000000B21F00701AC46ACE8C009ACE8C00989
:1007A000ACE8C009ACE8C0098D46704710B50446F6
:1007B000AFF300802046BDE81040FFF77FBD00008A
:1007C000004870475013002001491820ABBEFEE7D7
:1007D0002600020070470000014800F0DDBB000069
:1007E000081200202DE9F041044600270D4600685C
:1007F00002F0C2FC0646206802F0BAFC30435DD02D
:100800002068C1682E4E890105D5617F012902D17A
:10081000217F01290BD0022D1DD0206802F0ACFCF5
:10082000B8B120688168C1F3400169B111E00125C8
:10083000244902E08F4232D27F1C0268D243520622
:10084000F8D440210160E8E78168314041F01001AF
:100850008160012D11D0206802F08AFC48B1206827
:100860008168C1F3400121B98168314041F0200124
:100870008160022D08D0032D04D0042501F034F846
:10088000064617E00C25F9E70825F7E701F02CF8F4
:10089000801B05280ED92068806828420AD0E06DA8
:1008A00040F01000E065206E40F00100206601205D
:1008B000BDE8F081206880682842E7D10020F7E792
:1008C000C0FFFF7F000040A370B504460068816848
:1008D0008268C1F3400112F0010F28D039BB816852
:1008E00001F00D01012914D18168124A1140891CBF
:1008F000816021680320086000F0F6FF054612E0E1
:1009000000F0F2FF401B02280DD920688068C00764
:1009100009D0E06D40F01000E065206E40F001006D
:100920002066012070BD20688068C007E8D10020E3
:1009300070BD0000C0FFFF7F70B50446006881688D
:1009400011F0010F2DD18168174A11421AD1816827
:10095000D5432940491C816000F0C6FF06461BE0D4
:10096000816811F0010F03D181682940491C816021
:1009700000F0BAFF801B02280ED920680068C0432F
:10098000C00709D0E06D40F01000E065206E40F037
:1009900001002066012070BD20680168C943C907B5
:1009A000DED1002070BD00003F000080FEE77047F0
:1009B00072B6FEE7F8B500260446009690F8580097
:1009C0000D4601280BD0012084F858002046FFF77F
:1009D0007BFF0100E06D04D040F010002AE002200F
:1009E000F8BD20F4885040F00200E065206882687D
:1009F000134B1A4005F080431A4342F000428260D4
:100A0000104A20680EE0009B5B1C0093934209D3C0
:100A1000E06D20F0020040F01000E06584F85860BE
:100A20000120F8BD8368DB0FEDD1E06D20F00200FE
:100A300040F00100E06584F858600846F8BD000009
:100A4000C0FFFF3F02DE04007047704770477047E9
:100A5000704700002DE9F047044690F858009CB01C
:100A60000E464FF00009012815D0012084F85800E7
:100A700000251795189520684FF0A04840450ED1E5
:100A8000284F0097384602F07BFB8246206802F030
:100A900077FB60B10EE002201CB0BDE8F087E06D8E
:100AA00040F02000E06584F858500120F4E7BAF1E6
:100AB000000F09D0E06D40F02000E0654FF0010923
:100AC00084F858504846E7E71748326840F61F71E7
:100AD000002A826822F4604216D094F8383042EA44
:100AE000433273681A438260D8F80820BB6802F06A
:100AF000010203F001031A43E2D1B36832681A43DA
:100B000083688B431A430BE08260D8F80820BB68E7
:100B100002F0010203F001031A43D1D182688A4333
:100B20008260CDE700010050000300502DE9F84F2E
:100B300000270446009790F85800DFF8E0930D4630
:100B4000B846012811D0012684F85860206802F0C8
:100B500013FB60B1E06D40F02000E0655FF001073D
:100B600084F858803846BDE8F88F0220FBE7D5E9C5
:100B700000210C23206803EA91131844036B01F051
:100B80001F014FF01F0C0CFA01FCC2F3846223EA30
:100B90000C038A4013430363206802F0EDFA824697
:100BA000206802F0E5FA5AEA00003CD1AA682968F8
:100BB0002068B2F1004F37D002F0EEFA20684169A8
:100BC00021F00041416120686969C268C2F3C10235
:100BD000520091402A69042A31D000EB82002B6830
:100BE000026EDFF83CC303F0F84302EA0C020B4349
:100BF0001A4342F00041016620682A69A96900EBA6
:100C00008200026E22F080720A430266297F226807
:100C10002869012910D0002102EB8000026E22F029
:100C200000720A4302667DE0002202F0B5FA2068F5
:100C3000416941F00041C5E74FF00071ECE7002148
:100C400002F090FA400320684FF0000172D002F0E9
:100C500089FA90FAA0F0B0FA80F1286842036ED0C9
:100C600090FAA0F0B0FA80F0814204D1002211463F
:100C7000206802F0A0FA0121206802F073FA400314
:100C800020684FF001015DD002F06CFA90FAA0F0FC
:100C9000B0FA80F12868420359D090FAA0F0B0FA77
:100CA00080F0814204D100220121206802F083FA01
:100CB0000221206802F056FA400320684FF002013A
:100CC00048D002F04FFA90FAA0F0B0FA80F128680C
:100CD000420344D090FAA0F0B0FA80F0814204D1EF
:100CE00000220221206802F066FA0321206802F047
:100CF00039FA400320684FF0030133D002F032FA92
:100D000090FAA0F0B0FA80F1286842032FD090FA50
:100D1000A0F0B0FA80F0814204D1002203212068C3
:100D200002F049FA2068816811F0010F22D0ACE08E
:100D300000E004E002F016FAC0F384618DE7C0F32E
:100D4000846091E702F00EFAC0F38461A2E7C0F379
:100D50008460A6E702F006FAC0F38461B7E7C0F347
:100D60008460BBE702F0FEF9C0F38461CCE7C0F316
:100D70008460D0E72A7B296850F8B03FC1F3120C99
:100D800023EA0C0302F0180C664A22FA0CF20A401D
:100D900013430360E968494577D1286841031CD0B3
:100DA00090FAA0F1B1FA81F1491C01F01F01092963
:100DB0004FEA403132D8002912D000BF90FAA0F19A
:100DC000B1FA81F101F1010101F01F0106FA01F60A
:100DD00009D100BFC0F3846109E0C0F38461E3E797
:100DE000C0F38461EEE790FAA0F1B1FA81F101F16C
:100DF000010101F01F0146EA816102D1C0F3846064
:100E000003E090FAA0F0B0FA80F000F1010000F0E9
:100E10001F0000EB400041EA005132E000290ED0F3
:100E200090FAA0F1B1FA81F101F1010101F01F0185
:100E300006FA01F606D100BFC0F3846106E0C0F3F4
:100E40008461F1E790FAA0F1B1FA81F101F10101B9
:100E500001F01F0146EA816102D1C0F3846003E022
:100E600090FAA0F0B0FA80F000F1010000F01F004D
:100E70002D4A00EB400002EB005041EA000141F036
:100E80000071AA68206802F087F928482A6802429F
:100E90003FF466AE26488168264B01F0E0719A4225
:100EA00002D0254B9A421CD10B021AD42268B2F10F
:100EB000A04F7FF455AE826841F4000122F0E07249
:100EC0000A4382601D481E490068B0FBF1F0401CD7
:100ED00000EB4000800000E0401E00900028FBD1A5
:100EE0003EE6184D184BAA4207D1CD0105D4226821
:100EF0009A42F5D041F0807109E0144DAA42EFD139
:100F00004A02EDD422689A42EAD041F48001826814
:100F100022F0E0720A43826022E6000000007F4077
:100F200000F0FF03FFFF0700000020FE0000088024
:100F300000030050000021C31000C090EC110020FD
:100F4000400D0300000052C700010050000084CB98
:100F500010B5094800F048FB074800F01AF80749A7
:100F60000246886006A10948FFF746FABDE810402E
:100F70000649302001F0E2BF0812002000000020E6
:100F800020414443313A253033750000F0110020F0
:100F900070470068006C70472DE9F05F04460068F8
:100FA00006684568DFF854B2DBF8080000F01F0758
:100FB000B0070ED5A8070CD5E06DC00603D4E06DD0
:100FC00040F40060E0652046FFF73EFD2168022006
:100FD0000860DFF82CA270074FF0A04801D5680721
:100FE00003D4300737D5280735D5E06DC00603D4C4
:100FF000E06D40F40070E065206802F0C5F820B3B1
:101000002068504501D1424600E00246824208D0A5
:101010003FB1052F05D0092F03D0504503D14146DC
:1010200002E0C16801E00146C96889040DD4016885
:1010300009070AD502F0A0F858B3E06D40F010009F
:10104000E065206E40F0010020662046FFF780FF3B
:1010500021680C200860B00601D5A80603D47006EC
:1010600058D5680656D5E06DC00603D4E06D40F44F
:101070000050E0652068C16C11F4C07F1AD00021D7
:10108000894602F081F802462068504514D1434653
:1010900013E02068416821F00C014160E06D20F40C
:1010A0008070E065E06DC004CFD4E06D40F00100D9
:1010B000E065CAE70121E3E70346834208D03FB178
:1010C000062F05D0072F03D0504503D1414602E03B
:1010D000C16801E00146C968B9F1000F14D08B0165
:1010E00002D58AB18A040FD4026852060CD589024F
:1010F0000AD402F03DF8E8B3E06D40F01000E0657E
:10110000206E40F0010020662046FFF79EFC21681B
:101110006020086030060BD5280609D5E06D40F444
:101120008030E065204600F06BF92168802008607F
:10113000F0050CD5E8050AD5E06D40F40030E06517
:101140002046FFF784FC21684FF480700860B005EA
:101150000CD5A8050AD5E06D40F48020E065204656
:10116000FFF776FC21684FF400700860F0062ED57A
:10117000E80600E008E02AD5E06BD0B1AFB1DBF8BB
:10118000080000F4604013E02068416821F060012D
:101190004160E06D20F48050E065E06DC005B3D49F
:1011A000E06D40F00100E065AEE72068C068C00770
:1011B00050B1E06D40F48060E065206E40F00200C8
:1011C00020662046FFF7E4FE2168102008607005C5
:1011D00012D5680510D5E06D40F48040E065206EC2
:1011E00040F00800206621684FF4806008602046C7
:1011F000BDE8F05FFFF72ABCBDE8F09F0003005098
:1012000000010050F8B54FF0000504002E4600958F
:1012100002D0E06D10B107E00120F8BD204600F0DB
:10122000F1F8266684F8586020688168C1F340713F
:1012300019B181686A4A1140816020688168C1F3F0
:10124000007189B98168674A114041F0805181601D
:10125000654866490068B0FBF1F04000801C00E082
:10126000401E00900028FBD120688168C1F3007106
:1012700041B9E16D41F01001E165216E41F00101DC
:101280002166012501F078FFE16DC90600D430B177
:10129000E06D40F01000E06501252846F8BDE06DE6
:1012A00020F4807040F00200E0652068806810F053
:1012B000010F11D14FF0A04080684D4900F00100AE
:1012C000896801F00101084306D14A4861688268D3
:1012D00022F47C120A438260E168E06B627F08437B
:1012E000A16841EA4231084394F8241040EA0140E1
:1012F000012904D1218D404A02EB41410843E16AB2
:1013000029B101F47871226B014342EA010021689E
:10131000CA683A4B1A400243CA6020680169626B8E
:1013200021F0406111430161206801F025FF06466C
:10133000206801F01DFF30432ED1207F94F8381033
:10134000800340EA41022068C16844F202039943E5
:101350001143C16020690028206801690AD041F466
:1013600080310161206850F8C01F22696FF30D01C0
:10137000114307E021F480310161206850F8C01F5B
:101380006FF30D01016094F8400001280CD0206833
:10139000016921F001010161606901282068016B88
:1013A00021F00F0111D013E0D4E911010843D4E971
:1013B00013121143084321680A6940F2FC739A43EF
:1013C000104340F001000861E6E7226A521E114313
:1013D0000163E06D20F0020040F00100E0655CE791
:1013E000C0FFFF5FC0FFFF7FEC110020400D030036
:1013F00000010050000300500000FEFF0740F0FF16
:101400007047000010B586B0044614216846FFF707
:1014100007F92068B0F1A04F23D11348C16C41F403
:101420000051C164C16C01F400510591C16C41F0DF
:101430000201C164C06C694600F0020005904FF4DF
:10144000A04000900320019000200290074800F087
:1014500061F900221146122000F0ACFA122000F0CF
:101460009BFA06B010BD00000010024000040048C6
:101470002DE9F04104465948806800F01F052068B6
:1014800001F07AFE18B102221046BDE8F08194F80E
:10149000580001280CD0012084F858002046FFF79E
:1014A0004BFA02004FF0000304D084F85830EBE709
:1014B0000220EAE7E06D40F60161884340F4807065
:1014C000E065474920684FF0A046884201D1374681
:1014D00000E00746874200D01DB9E76D27F480176A
:1014E000E765E76DFF0404D5276E27F0060727663A
:1014F00000E023661C27076084F8583020684368A2
:1015000023F01C034360A06908282068436802D0C8
:1015100043F0040301E043F008034360E06B20B9AB
:101520002068436843F0100343602068884201D17B
:10153000334600E0034683420CD05DB1052D09D04F
:10154000092D07D0E36D43F48013E365884225D16C
:10155000314624E0C168890119D5E16D21F40051BB
:1015600041F48051E165A1690829416807D021F063
:10157000400141602068416841F0200106E021F00F
:10158000200141602068416841F0400141602068CD
:101590008168144B1940091D816075E70146C968CF
:1015A000890184D5E16D21F4005141F48051E16558
:1015B000A1690829416807D021F0400141602068F5
:1015C000416841F0200106E021F0200141602068DF
:1015D000416841F04001416056E7000000030050BF
:1015E00000010050C0FFFF7F10B5044690F858007E
:1015F000012808D0012084F8580003212046FFF775
:10160000F1F810B110E0022010BD2068416821F00F
:101610001C0141602046FFF757F928B9E16D21F41C
:10162000885141F00101E165002184F8581010BD96
:1016300010B590F8253000210122022B03D004219F
:10164000C163012122E003681C6824F00E041C60C1
:10165000836C1C6824F480741C6003681C6824F08C
:1016600001041C6090F84430046C03F01F0302FA7C
:1016700003F36360D0E913345C60436D33B11C68DD
:1016800024F480741C60D0E916345C6080F8252056
:10169000002280F82420084610BD70B590F825205F
:1016A000002401212346022A07D00422C26380F8C5
:1016B000251080F82430012429E00268156825F0FF
:1016C0000E0515600268156825F001051560826C2D
:1016D000156825F48075156090F84420056C02F0BB
:1016E0001F0201FA02F26A60D0E913255560426DCB
:1016F00032B1156825F480751560D0E9162555605E
:1017000080F8251080F82430816B01B1884720468D
:1017100070BD00002DE9FC4FDFF8A0A100230125DA
:101720000AF1040B03244FF00F0C0BF1040EBDE083
:1017300005FA03F632406FD04F68012F05D0022F13
:1017400003D0112F01D0122F17D1D0F808905F00CD
:1017500004FA07F829EA08090097D1F80C8008FA7A
:1017600007F848EA0908C0F808804768B7430E79C7
:10177000C6F300169E403E434660C6684FEA4308E3
:1017800004FA08F7BE4301978F6807FA08F7374352
:10179000C7604E68022E01D0122E13D1DE0800EB76
:1017A00086060096366A5F07FF0E0CFA07F926EAEE
:1017B0000906D1F8109009FA07F949EA0609009ECE
:1017C000C6F820900668019FBE430F7907F0030713
:1017D00007FA08F7374307604E68F60065D5384EBC
:1017E000376E47F001073766366E23F0030706F0C1
:1017F00001060096334E3E44B146B6689F074FEA55
:1018000017780CFA08F7BE43B0F1904F05D02E4F71
:10181000B84204D1012717E047E0002714E02B4F1E
:10182000B84201D102270FE0294FB84201D1032766
:101830000AE0284FB84201D1042705E0264FB842FC
:1018400001D1052700E0062707FA08F73743C9F852
:101850000870DAF800605746D1F8048096435FEAD2
:10186000C83800D516433E60DBF800605F46D1F80B
:10187000048096435FEA883800D516433E60DEF860
:1018800000607746D1F8048096435FEAC82800D507
:1018900016433E60094F0C373E68D1F804809643EA
:1018A0005FEA882800D516433E605B1C0A6832FA5E
:1018B00003F67FF43DAFBDE8FC8F0000000401405B
:1018C00000100240000001400004004800080048E9
:1018D000000C004800100048001400480AB1816163
:1018E00070478162704700000148806870470000BF
:1018F000E01100200248816842681144816070470D
:10190000E011002010B50024032000F073F80F2030
:1019100000F008F808B1012401E000F025F82046A5
:1019200010BD000070B50E4E05460024706898B1D9
:101930004FF47A71B1FBF0F00A490968B1FBF0F09D
:1019400000F064FD40B9102D06D200222946501E39
:1019500000F030F8356000E00124204670BD000042
:10196000E0110020EC1100200A4882B0016E41F025
:1019700001010166016E01F001010091816D41F0EC
:1019800080518165806D00F08050009002B000F0C1
:10199000A1B8000000100240002809DB00F01F027F
:1019A000012191404009800000F1E020C0F80011C1
:1019B00070470000F0B40E4B1B680C46C3F30223C3
:1019C000C3F10705042D00D90425191D072901D2EB
:1019D000002300E0DB1E012606FA05F1491E214026
:1019E00099409E40761E16403143F0BC02F0C3BAC7
:1019F0000CED00E0064900F0070208684FF6FF030F
:101A0000184040EA0220034A104308607047000073
:101A10000CED00E00000FA052B492C4B0A6832213E
:101A20004A432B4940B1B0F5007F086829D020F423
:101A3000C06040F480602CE00868C0F341200228B8
:101A400004D051F8800F20F4807022E0D1F880009B
:101A500020F48070C1F88000086820F4C06040F471
:101A600000700860B2FBF3F0401C00E0401E4A69C1
:101A7000520501D50028F9D1486940050AD503204F
:101A80007047C0F34120022806D051F8800F40F47F
:101A90008070086000207047D1F8800040F48070AA
:101AA000C1F88000086820F4C06040F4007008604D
:101AB000B2FBF3F0401C00E0401E4A695205DBD542
:101AC0000028F9D1D8E70000EC11002040420F00B7
:101AD000007000400248816841F480418160704795
:101AE000007000402DE9F8430446006800269D4D33
:101AF00000035ED5A86D0027C00008D4A86D40F093
:101B00008050A865A86D012700F080500090DFF894
:101B10005892D9F8001041F48071C9F80010FFF70D
:101B2000E3FE804606E000BFFFF7DEFEA0EB080004
:101B300002282BD8D9F80000C005F5D5D5F89000BB
:101B400010F4407014D0216C814211D0D5F890006F
:101B5000D5F8901020F4407041F48031C5F8901011
:101B6000D5F8901021F48031C5F89010C5F8900098
:101B7000C00711D0FFF7B8FE804641F2883907E070
:101B8000FFF7B2FEA0EB0801494501D903260BE09F
:101B9000D5F890008007F3D5D5F89000216C20F49B
:101BA00040700843C5F890001FB1A86D20F0805028
:101BB000A8652078C00707D0D5F88800616820F0B4
:101BC00003000843C5F888002078800707D5D5F8BA
:101BD0008800A16820F00C000843C5F88800207830
:101BE000400707D5D5F88800E16820F030000843A9
:101BF000C5F888002078000707D5D5F88800216946
:101C000020F0C0000843C5F888002078800607D57A
:101C1000D5F88800616920F440600843C5F8880061
:101C20002078400607D5D5F88800A16920F44050F7
:101C30000843C5F888002078000607D5D5F8880045
:101C4000E16920F440400843C5F888002088C005B9
:101C500007D5D5F88800216A20F440300843C5F83C
:101C600088002088800507D5D5F88800616A20F4AF
:101C700040200843C5F88800208840050FD5D5F8D6
:101C80008800A16A20F440100843C5F88800A06AC3
:101C9000B0F5801F03D1E86840F48010E860208828
:101CA00000050FD5D5F88800E16A20F4400008430C
:101CB000C5F88800E06AB0F5800F03D1E86840F409
:101CC0008010E8602088C0040FD5D5F88800216B0B
:101CD00020F040700843C5F88800206BB0F1807F89
:101CE00003D1E86840F48010E86020884FF000617C
:101CF00080040ED5D5F88800626B20F04060104358
:101D0000C5F88800606B884203D1E86840F4801011
:101D1000E860208840040ED5D5F88800A26B20F03A
:101D200040601043C5F88800A06B884203D1E86882
:101D300040F48010E860208800040FD5D5F88800B2
:101D4000E16B20F040500843C5F88800E06BB0F12B
:101D5000805F03D1E86840F48030E8603046BDE839
:101D6000F883000000100240007000402DE9F047A9
:101D70000E4605004FF0000725D0DFF8AC81D8F8FB
:101D8000000000F00F00B0420CD2D8F8001021F093
:101D90000F013143C8F80010D8F8000000F00F0020
:101DA000B04210D12968614CC80741F2883A5AD034
:101DB0006868DFF87C91032808D0022820682DD0BD
:101DC000400500282CDB0120BDE8F0872068800159
:101DD000F9D5E06800F00302E068C0F30310401C8E
:101DE000032A19D0534A00BFB2FBF0F0E268C2F3F5
:101DF00006225043E268C2F34162521C5200B0FB1B
:101E0000F2F0484517D9A06810F0F00F0CD0880701
:101E100011D5A86840B10EE0474AE5E78003D0E756
:101E200000F0B6F8484506D9A06820F0F00040F070
:101E30008000A0608027A068696820F00300084344
:101E4000A060FFF751FD814606E000BFFFF74CFDA3
:101E5000A0EB090151453AD8A068696800F00C0070
:101E6000B0EB810FF2D12868810714D5400703D564
:101E7000A06840F4E060A0602878000705D5A0685D
:101E800020F4605040F4E060A060A068A96820F0F1
:101E9000F000084304E0802F03D1A06820F0F00098
:101EA000A060D8F80010404601F00F01B14216D9E9
:101EB000016821F00F0131430160FFF715FD07466E
:101EC00007E000BFFFF710FDC11B514501D90320FA
:101ED0007AE7D8F8000000F00F00B042F2D128787D
:101EE000400705D5A068E96820F4E0600843A060D9
:101EF0002878000706D5A068296920F4605040EAD8
:101F0000C100A06000F044F8A1680C4AC1F30311BD
:101F1000515C01F01F01C840094908600948006888
:101F2000BDE8F047FFF7FEBC002002400010024071
:101F300000B4C4040024F40000366E0132400008EE
:101F4000EC110020E011002005480649006889686E
:101F5000054AC1F30221515C01F01F01C8407047DE
:101F6000EC110020001002404240000805480649DC
:101F700000688968054AC1F3C221515C01F01F0164
:101F8000C8407047EC110020001002404240000899
:101F9000184910B58868C0F381021748012A0BD090
:101FA0008A68164BC2F38102022A06D08A68C2F3FD
:101FB0008102032A03D0002010BD184610BDCA6854
:101FC00002F00304CA68C2F30312521C032C02D0AD
:101FD000B0FBF2F001E0B3FBF2F0CA68C968C2F3EB
:101FE00006225043C1F34161491C4900B0FBF1F0A6
:101FF00010BD0000001002400024F40000366E0105
:102000002DE9F84304007AD02078FA4DC00747D074
:10201000A868E96800F00C0001F003010C2802D068
:10202000082817D001E0032914D06068B0F5803F7C
:1020300017D0B0F5A02F286817D020F48030286082
:10204000286820F4802028606068E0B1FFF74CFC2D
:10205000064614E02868800322D560680028D2D0A4
:102060001EE0286840F48030EDE740F480202860CE
:10207000F7E700BFFFF738FC801B642870D828689A
:102080008003F7D50CE0FFF72FFC064605E000BF04
:10209000FFF72AFC801B6428F0D828688003F7D457
:1020A000207880074CD5A868E96800F00C0001F0A2
:1020B00003010C2802D004280DD001E002290AD027
:1020C000E068002828682BD040F480702860FFF773
:1020D0000BFC064619E02868400502D5E068002898
:1020E00091D06868217C20F0FE4040EA0160686081
:1020F000C1480068FFF716FC002800D120E076E117
:10210000FFF7F2FB801B0228B8D828684005F7D5F6
:102110006868217C20F0FE4040EA016068600FE0C2
:1021200020F480702860FFF7DFFB064605E000BF63
:10213000FFF7DAFB801B0228A0D828684005F7D4F7
:102140002078000729D560690028D5F8940013D0BD
:1021500040F00100C5F89400FFF7C6FB064606E014
:1021600090E000BFFFF7C0FB801B022886D8D5F89F
:1021700094008007F6D510E020F00100C5F8940027
:10218000FFF7B2FB064604E0FFF7AEFB801B022818
:1021900078D8D5F894008007F6D42078400761D528
:1021A000A86D0026C00008D4A86D40F08050A86536
:1021B000A86D012600F08050009090480168C90584
:1021C00011D40168804641F480710160FFF78CFBF7
:1021D000074604E0FFF788FBC01B022852D8D8F856
:1021E0000000C005F6D5A068012815D00528D5F84F
:1021F000900016D020F00100C5F89000D5F89000AE
:1022000020F00400C5F89000A06841F28838B8B109
:10221000FFF76AFB07460EE0D5F8900040F001009A
:10222000F0E740F00400C5F89000F5E7FFF75CFB2D
:10223000C11B414526D8D5F890008007F6D50CE0A3
:10224000FFF752FB074604E0FFF74EFBC11B414579
:1022500018D8D5F890008007F6D41EB1A86D20F0EC
:102260008050A8652078800629D5A0690028D5F877
:10227000980013D040F00100C5F89800FFF734FB38
:10228000064606E077E000BFFFF72EFB801B022822
:1022900077D8D5F898008007F6D510E020F0010037
:1022A000C5F89800FFF720FB064604E0FFF71CFB8B
:1022B000801B022865D8D5F898008007F6D4E0691D
:1022C000F0B3A968C1F38101032961D0022828680D
:1022D00020F0807028600BD0E86820F00300E860F0
:1022E000E86847490840E860FFF7FEFA04464BE01B
:1022F000FFF7FAFA064604E0FFF7F6FA801B022819
:102300003FD828688001F7D4F4E908016FF00F0284
:1023100002EB01110843218A5204490802EB4151A2
:10232000A26841EA02210843217D4FF07E4249081C
:1023300002EB41610843217B40EAC160E96800E0AB
:1023400062E0304A11400843E860286840F080703D
:102350002860E86840F08070E860FFF7C5FA04463E
:1023600005E000BFFFF7C0FA001B022809D8286863
:102370008001F7D548E004E0FFF7B6FA001B022819
:1023800002D90320BDE8F88328688001F4D43BE03B
:102390000128F7D0E868226A00F00301914226D1B3
:1023A000616A00F0F0020901103991421FD1A26A5E
:1023B00000F4FE41B1EB022F19D194F82C2000F06B
:1023C0007841B1EBC26F12D1218E00F4C0024908EE
:1023D0004905A1F50011914209D194F8341000F09B
:1023E000C06049084906A1F1007181420CD001206A
:1023F000C8E7000000100240E0110020007000401B
:10240000FFFFEEFE0C809F010020BBE710B5401ED1
:10241000B0F1807F01D3012010BD4FF0E024606156
:102420000F21601701F0A7FD0020A06107202061A7
:10243000002010BD70477047704770477047704765
:10244000F0B590F83C20012A3AD0012580F83C50A4
:10245000022280F83D2003685A689C68194E1A4F82
:10246000B34201D0BB4204D122F4700C4A6842EA64
:102470000C02DFF858C002EA0C02D1F800C04CEAA6
:10248000020CC3F804C00268B2420DD0B2F1804F12
:102490000AD00F4B9A4207D00E4B9A4204D0BA4250
:1024A00002D00D4B9A4204D1896824F0800319436D
:1024B000916080F83D50002180F83C100846F0BD46
:1024C0000220F0BD002C0140003401408FFFFFFDD1
:1024D000000400400008004000400140704710B573
:1024E000040003D094F83D0010B107E0012010BDB6
:1024F000002084F83C00204600F022F8022084F8F6
:102500003D00211D206801F00FF8012084F84800EB
:1025100084F83E0084F83F0084F8400084F84100CD
:1025200084F8420084F8430084F8440084F84500AD
:1025300084F8460084F8470084F83D00002010BD70
:1025400008B500680B49884212D10B48016E41F46E
:1025500000510166006E002200F400500090114608
:102560002C20FFF727FABDE808402C20FFF714BA0B
:1025700008BD0000003401400010024090F83D10FA
:10258000012901D001207047022180F83D10016827
:10259000CA6842F00102CA600068104988420ED041
:1025A000B0F1804F0BD00E49884208D00D498842C7
:1025B00005D00D49884202D00C49884207D1816874
:1025C0000B4A1140062906D0B1F5803F03D00168BF
:1025D00041F001010160002070470000002C014023
:1025E0000004004000080040003401400040014069
:1025F0000700010070B5044690F83C00012814D093
:10260000012584F83C50022084F83D00226890683F
:10261000344B184020F47F4090600868702827D021
:1026200010DC10F00F0F03D04AE04FF0020070BD35
:102630004FEA2012072A43D2DFE802F050505050F0
:1026400048313900284BC21A984247D009DCB0F50E
:10265000805F35D0B0F5005F15D0B0F1101F2FD1DD
:102660003CE0102A3AD0202A38D0502A28D135E030
:10267000CB68D1E90121206800F0AEFF20688168B5
:1026800041F0770109E0CB68D1E90121206800F031
:10269000A3FF2068816841F48041816010E0CA682E
:1026A0004968206800F0ACFF5021206806E0CA6845
:1026B0004968206800F0B5FF6021206800F096FFAF
:1026C00084F83D50002084F83C0070BDCA68496819
:1026D000206800F095FF40212068EFE7226801465E
:1026E0001046EBE788FFCEFF20001000704770B562
:1026F0000446006801694FF00005C943890715D4F5
:10270000C168C943890711D4E91E016101202077FE
:10271000206880698007204602D0FFF7E7FF04E0C9
:1027200000F0E3F8204600F0E1F825772068016921
:10273000C943490717D4C168C943490713D46FF087
:1027400004010161022020772068806910F4407F35
:10275000204602D0FFF7CAFF04E000F0C6F820468A
:1027600000F0C4F8257720680169C943090716D429
:10277000C168C943090712D46FF008010161042040
:1027800020772068C0698007204602D0FFF7AEFF9F
:1027900004E000F0AAF8204600F0A8F825772068A9
:1027A0000169C943C90617D4C168C943C90613D40E
:1027B0006FF010010161082020772068C06910F4D3
:1027C000407F204602D0FFF791FF04E000F08DF833
:1027D000204600F08BF8257720680169C943C907B6
:1027E00008D1C168C943C90704D1891E01612046C7
:1027F00000F07EF820680169C943090609D4C16860
:10280000C943090605D46FF0800101612046FFF736
:1028100012FE20680169C943C90509D4C168C943CA
:10282000090605D46FF4807101612046FFF702FEAE
:1028300020680169C943490609D4C168C9434906EA
:1028400005D46FF040010161204600F06BF820686C
:102850000169C943890609D4C168C943890605D4F9
:102860006FF0200101612046FFF7E6FD2068016955
:10287000C943C90209D4C168C943C90205D46FF468
:10288000801101612046FFF7D9FD20680169C94325
:10289000890209D4C168C943890205D46FF40011C3
:1028A00001612046FFF7C9FD20680169C94349025B
:1028B00009D4C168C943490205D46FF4800101619C
:1028C0002046FFF7BCFD20680169C94309020BD40B
:1028D000C168C943090207D46FF4000101612046B1
:1028E000BDE87040FFF7FABD70BD7047704700004B
:1028F000094910B588420ED1084CA078401CA07040
:1029000000F08EFB6178204600F014FCBDE810401A
:102910000348FEF7ADBD10BD74120020000000207A
:1029200008120020704790F88010012918D001216A
:1029300080F880102421C0F8841050F8641B0A68C5
:102940000B6823F001030B6022F0005100220260AB
:1029500050F8643C196020210162027710467047EC
:10296000022070477047704770B5044690F88000A9
:1029700001281DD0012084F880002420C4F88400A0
:1029800020680568026822F00102026020688268FF
:1029900022F060620A438260204600F055FE206803
:1029A00005602020C4F88400002084F8800070BDF9
:1029B000022070BD70B5044690F8800001281DD03B
:1029C000012084F880002420C4F884002068056871
:1029D000026822F0010202602068826822F06042F0
:1029E0000A438260204600F02FFE20680560202008
:1029F000C4F88400002084F8800070BD022070BDFF
:102A000070477047704700002DE9F04103680446A5
:102A1000D86919689A6840F60F0528424FF00005FA
:102A200009D186067ED501F0200602F080573E438C
:102A300078D0216FFFE0924E924F16400F403743FF
:102A400070D0C70709D0CF0507D501271F62D4F87A
:102A50008C3043F00103C4F88C3083070AD5D307C8
:102A600008D0276802233B62D4F88C3043F004037B
:102A7000C4F88C3043070AD5D30708D0276804234D
:102A80003B62D4F88C3043F00203C4F88C30030767
:102A90000CD501F02003334308D0266808233362A5
:102AA000D4F88C3043F00803C4F88C3003050BD500
:102AB0004B0109D526684FF400633362D4F88C309B
:102AC00043F02003C4F88C30D4F88C30002B34D081
:102AD000800609D501F0200002F08051084303D0A0
:102AE000216F09B120468847D4F88C002168896895
:102AF000490602D410F0280F21D0204600F064FED1
:102B000020688168490615D5816821F040018160FF
:102B1000E06F78B15C498163E06FFEF7BEFD00288D
:102B20000BD000E011E0E06F816B00E02046BDE8D3
:102B3000F04108472046FFF765FFBDE8F0812046D9
:102B4000FFF760FFC4F88C50F7E7E76E2026012FEF
:102B50005CD1C7065AD5CF0658D510201862206818
:102B6000816849062FD5E26F116849680904090C8C
:102B7000E3D0B4F85C308B42DFD9A4F85E10116862
:102B80000968890618D4016821F480710160206801
:102B9000816821F0010181602068816821F0400195
:102BA0008160C4F88860E5662068016821F0100142
:102BB0000160E06FFEF73CFDB4F85C00B4F85E1015
:102BC000401A81B21EE0B4F85C10B4F85E20891A95
:102BD000B4F85E2089B2002AAFD00029ADD00268D7
:102BE00022F49072026020688268254BDB431A4011
:102BF0008260C4F88860E56625672068026822F074
:102C0000100202602046FFF7ADFE96E7C70209D525
:102C1000570207D54FF4801018622046BDE8F041F6
:102C2000FFF7EFBE07060AD501F0800702F40002A5
:102C3000174304D0616F00297FF478AF7DE7420627
:102C40000CD54A060AD51968204621F040011960C2
:102C5000C4F88460656700F043F96EE7020206D5A8
:102C60004A0004D52046BDE8F041FFF7C9BEC001C7
:102C7000CBD50029C9DA2046BDE8F041FFF773BE85
:102C80000100001020010004B537000810B5040051
:102C900003D0D4F8840010B107E0012010BD00205B
:102CA00084F88000204600F027F82420C4F884002F
:102CB0002068016821F001010160204600F05CFFFE
:102CC0000128EBD0A06A10B1204600F0DFFC20689C
:102CD000416821F4904141602068816821F02A0117
:102CE00081602068016841F0010101602046BDE873
:102CF000104000F02FBD000010B586B0044614212E
:102D00006846FDF78DFC17492068884227D1164890
:102D1000016E41F480410166016E01F4804105912C
:102D2000C16C41F00101C164C06C694600F0010052
:102D300005904FF4C06000900220019000200290A6
:102D40000390072004904FF09040FEF7E3FC002230
:102D500011462520FEF72EFE2520FEF71DFE06B0AB
:102D600010BD0000003801400010024010B4D0F83F
:102D70008830202B1BD1B9B1B2B190F88030012B33
:102D800015D0012380F880300023C366094C036806
:102D9000A34206D05C68240203D51C6844F080641A
:102DA0001C6010BC01F022B8012010BC704702204A
:102DB000FBE700000080004070B5006812498842BF
:102DC00020D1124C42F210752079A12807D10120A0
:102DD00060702B4608220EA10F4800F023F82079DE
:102DE000A22807D1002060702B4607220BA10A48B9
:102DF00000F018F8BDE8704004490122091D06489A
:102E0000FFF7B4BF70BD0000003801400000002093
:102E10005269676874210A00C01200206C656674EC
:102E2000210A00002DE9F8430446D0F884001F462B
:102E300016460D46202851D1DDB1D6B194F8800058
:102E400001284BD0012084F880004FF00008C4F81E
:102E50008C802120C4F884001834FEF745FDA68735
:102E60008146E68754F8100C183CB0F5805F03D01B
:102E700004E00120BDE8F883206920B12E4600253A
:102E800084F8808010E00026FAE78021204601F0D7
:102E900019F8B8B9C6B116F8010B21688862B4F800
:102EA0005600401EA4F85600B4F856004B464FF0AA
:102EB000000200970028E8D14FF04001204601F0C1
:102EC00001F830B10320D5E735F8020BC0F3080054
:102ED000E3E72020C4F884000020CBE70220C9E704
:102EE0007047FEE770B5002406462146204600F0F4
:102EF000BBF800F0FBF84FF49635304600F0F2F8DE
:102F0000641CAC42F9D370BD002240F6B83306E031
:102F10000021491C89B29942FBD3521C92B28242D1
:102F2000F6D37047203AD2B2034B02EB420203EBD6
:102F3000021200F01DB80000100000202DE9F04141
:102F400000240E468046142740F23F1508E029462B
:102F50004046FFF7E7FF103D641CADB2E4B2761CBB
:102F60003278002A01D0BC42F1D3BDE8F0810000E4
:102F70002DE9F0470025DFF84C8091468A46064649
:102F800001275146304600F06FF800F0AFF80024FA
:102F900039F8150007FA04F1084202D1B8F8020026
:102FA00001E0B8F8000000F09DF8641CE4B2102CB9
:102FB000EED3761C6D1CEDB2F6B2182DE1D3BDE850
:102FC000F08700000C00002010B50121002000F067
:102FD00091F841F20801032000F08CF840F27311DF
:102FE000072000F087F841F29001102000F082F8ED
:102FF00040F22721112000F07DF81D21122000F061
:1030000079F84FF41C51602000F074F80121612020
:1030100000F070F8BDE81040FA20FFF775BF00001F
:1030200010B5064806A1C37882780B48FDF7E4F98D
:10303000BDE8104008491820FFF780BF00000020BD
:10304000205345433A25303375202020434E543ACF
:103050002530337520000000F01100200149488020
:10306000704700000C00002010B50C4601462020DF
:1030700000F040F82146BDE81040212000F03AB8A9
:1030800001490880704700000C0000202DE9F04144
:1030900001220D460646170239464FF09040FEF7D2
:1030A0001DFC0E4C002279002046FEF717FC0C4850
:1030B000056086B1012239462046FEF70FFC00224A
:1030C00020212046FEF70AFC2046BDE8F0410122FF
:1030D0002021FEF703BC0022EDE7000000040048B9
:1030E0001408004801460120FFF7D0BF222100202C
:1030F000FFF7CCBF10B50C4601460020FFF7C6FF16
:103100002146BDE810400120FFF7C0BF0278012929
:1031100009D0510041EAD2110170C8B20449C0433C
:10312000000208607047510841EAC211F4E700004C
:103130001408004810B5FFF7E9FFBDE8104000F0A3
:1031400001B8000010B5064C012204212046FEF70C
:10315000C5FB20460022BDE810400421FEF7BEBB9F
:10316000000C004800EB8100006E00F0F840704752
:103170008068C0F3C00070478068C0F3800070476B
:103180008068C0F380007047C06810F4406F01D0C1
:103190000020704701207047042303EAD15310B583
:1031A00018444369C1F3045107248C40A3438A4067
:1031B0001343436110BD00EB8100016E21F000411B
:1031C000114301667047000030B58BB000240894AD
:1031D0000994202168460A94FDF722FA23484FF00B
:1031E000A041042501604FF44031C0E9011485611C
:1031F0000121C460C0E904410477417702210162E2
:1032000080F82440C462046380F83840C902C16376
:1032100080F84040FDF7F6FF08B1FDF7C9FB08A9AB
:1032200012480894FDF716FC08B1FDF7C1FB1048E1
:1032300000900620CDE901047F200594CDE9030527
:1032400069460A48FDF772FC08B1FDF7B1FB094871
:1032500000900C20019069460448FDF767FC0028A7
:1032600001D0FDF7A5FB0BB030BD00000812002017
:103270000008302E2000F0142DE9F04F87B0142103
:103280006846FDF7CDF94148C16C41F00401C164C5
:10329000C16C01F004010591C16C41F02001C164D1
:1032A000C16C01F020010591C16C41F00101C164C4
:1032B000C16C01F001010591C16C41F00201C164D2
:1032C000C16C01F002010591C16C41F00801C164BB
:1032D000C06CDFF8BC8000F008004FF6FF7405906A
:1032E000002221464046FEF7F9FA4FF480764FF06F
:1032F0009049002231464846FEF7F0FADFF894A0E4
:10330000012204215046FEF7E9FADFF88CB04FF4B1
:103310004877002239465846FEF7E0FA0094012427
:103320000025694640460194CDE90245FEF7F2F9D1
:103330001A486946CDE9004048460294FEF7EAF98A
:103340000720CDE90005694602945846FEF7E2F9E8
:10335000CDE9006469464846CDE90245FEF7DAF951
:103360000420CDE900040220CDE90205694650465B
:10337000FEF7D0F9CDE9007469465846CDE902451B
:10338000FEF7C8F907B0BDE8F08F0000001002405A
:1033900000080048000C004800040048000021100C
:1033A00010B588B000241948059406940394049439
:1033B0000094019414490294016044F26721C0E929
:1033C000011442F20F71C0E9031444618461FFF7F4
:1033D00086F808B1FDF7ECFA4FF48050039003A98A
:1033E0000A48FFF707F908B1FDF7E2FA00940194E3
:1033F000694606480294FFF723F8002801D0FDF73C
:10340000D7FA08B010BD000000340140741200204B
:10341000184810B5164901604FF4E13141600021B0
:1034200081600C22C160C0E904128161C161016246
:1034300041628162FFF72AFC08B1FDF7B9FA002169
:103440000C48FFF7B7FA08B1FDF7B2FA00210948B6
:10345000FFF78AFA08B1FDF7ABFA0648FFF763FAFF
:10346000002803D0BDE81040FDF7A2BA10BD00004F
:1034700000380140C0120020FEE7FEE770477047A9
:10348000FEF738BA10B5A4B038216846FDF7C8F881
:1034900014211FA8FDF7C4F844210EA8FDF7C0F8B9
:1034A0000020FEF7B9FA0120009000040324062151
:1034B0000190CDE9084102205521CDE90A1007907D
:1034C0000C900D906846FEF79BFD08B172B6FEE7C2
:1034D0000F20CDE91F0400242194229404211FA869
:1034E0002394FEF743FC08B172B6FEE748F20100F0
:1034F000CDE90E0440071D900EA8FEF7F3FA002850
:1035000001D072B6FEE724B010BD00000248016889
:1035100041F470010160704788ED00E00148FFF759
:10352000E6B80000741200202DE9F0430268234B36
:10353000234D244E244C4FF08049984207D04845F3
:1035400005D0A84203D0B04201D0A04203D122F05E
:1035500070074A683A431D4FDFF874C0DFF8748083
:1035600098420DD048450BD0A84209D0B04207D0B0
:10357000A04205D0B84203D0604501D0404503D1F8
:1035800022F44075CA682A434D6922F080022A431A
:1035900002608A68C2620A688262984207D0A042CA
:1035A00005D0B84203D0604501D0404501D109693A
:1035B000016301214161BDE8F0830000002C01405E
:1035C0000004004000080040003401400040014079
:1035D000004401400048014010B5846842EA0322DB
:1035E00024F47F440A432243826010BD8268034B67
:1035F0001A400A4342F00701816070478FFFCFFFF6
:1036000010B5036A046A24F001040462846924F09A
:10361000F00444EA021423F00A020A4384610262BD
:1036200010BD10B5036A23F0100303628369046AB6
:1036300023F4704343EA023224F0A00343EA011169
:103640008261016210BD000030B5416EB9B10268FF
:1036500091689268C1F342610B4B520F9C5CE5008C
:1036600003F10804A25CB5FBF2F2A0F86A205A5CF0
:10367000615CD200B2FBF1F1A0F8681030BD01210D
:10368000A0F86A10F8E700002240000890F828101F
:10369000C90706D001684A68C36A22F400321A4397
:1036A0004A6090F82810890706D501684A68036BBC
:1036B00022F480321A434A6090F82810490706D550
:1036C00001684A68436B22F480221A434A6090F8EA
:1036D0002810090706D501684A68836B22F4004266
:1036E0001A434A6090F82810C90606D501688A680E
:1036F000C36B22F480521A438A6090F8281089061E
:1037000006D501688A68036C22F400521A438A6065
:1037100090F82810490611D501684A68436C22F4D4
:1037200080121A434A60416CB1F5801F06D10168CE
:103730004A68836C22F4C0021A434A6090F8281049
:10374000090606D501684A68C06C22F400220243CB
:103750004A607047F8B500260446C0F88C60FEF752
:10376000C3F80546206800686FF07E47000708D55B
:103770002B4600224FF400112046009700F0A2FBD8
:1037800060B92068006840070AD52B4600224FF434
:1037900080012046009700F095FB08B10320F8BD9A
:1037A0002020C4F88400C4F8880044F86C6F00201E
:1037B0002675F8BD10B5806A0021A0F85E10A0F84B
:1037C0005610FFF71FF910BD01680A6822F49072C5
:1037D0000A6001688A68094B1A408A60C16E012933
:1037E00004D101680A6822F010020A602021C0F8A2
:1037F00088100021C166016770470000FEFFFFEFDF
:1038000070B5B0F86010D0F8882004460068222A0D
:1038100004D0816941F00801816170BD406AA26DE8
:1038200008401080A06D801CA065B4F85E00401EAA
:10383000A4F85E00B4F85E000028EED120680168AC
:1038400021F4907101602068816821F0010181609C
:103850002020C4F8880000252567E06E012804D0E8
:103860002046FFF7A9FAE56670BD2068016821F0DF
:1038700010010160B4F85C102046FFF773F8F2E71E
:103880002DE9F0470446B0F860600068C569D0F8DB
:1038900000A0D0F80880D4F88810222905D08169CA
:1038A00041F008018161BDE8F087B4F868704FF01D
:1038B00000095BE02068406AA16D30400880A06D7F
:1038C000801CA065B4F85E00401EA4F85E0020686D
:1038D000C569690730D0E9070AD05FEACA5107D540
:1038E00001210162D4F88C0040F00100C4F88C0082
:1038F000A8070BD55FEAC87008D0216802200862CB
:10390000D4F88C0040F00400C4F88C0068070BD594
:103910005FEAC87008D0216804200862D4F88C00DF
:1039200040F00200C4F88C00D4F88C0020B120468E
:10393000FFF768F8C4F88C90B4F85E00B0B920685E
:10394000016821F48071016020688168194A114082
:1039500081602020C4F88800C4F87090E06E0128CF
:103960001CD02046FFF728FAC4F86C900FB1A806C7
:10397000A0D4B4F85E00002895D0B4F86810814255
:1039800091D92068816821F0805181600A482067C0
:103990002068016841F02001016084E72068016827
:1039A00021F010010160B4F85C102046FEF7DAFF48
:1039B000DAE70000FEFFFFEF0138000870B5B0F84D
:1039C0006010D0F8882004460068222A04D081695B
:1039D00041F00801816170BD406A0840A16D087026
:1039E000A06D401CA065B4F85E00401EA4F85E0007
:1039F000B4F85E000028EED12068016821F49071CF
:103A000001602068816821F0010181602020C4F8F4
:103A1000880000252567E06E012804D02046FFF7C6
:103A2000CBF9E56670BD2068016821F010010160E6
:103A3000B4F85C102046FEF795FFF2E72DE9F04759
:103A40000446B0F860600068C569D0F800A0D0F8FE
:103A50000880D4F88810222905D0816941F0080136
:103A60008161BDE8F087B4F868704FF000095BE051
:103A70002068406AA16D30400870A06D401CA065B0
:103A8000B4F85E00401EA4F85E002068C5696907AE
:103A900030D0E9070AD05FEACA5107D50121016297
:103AA000D4F88C0040F00100C4F88C00A8070BD5B6
:103AB0005FEAC87008D0216802200862D4F88C0040
:103AC00040F00400C4F88C0068070BD55FEAC870AA
:103AD00008D0216804200862D4F88C0040F002006D
:103AE000C4F88C00D4F88C0020B12046FEF78AFF81
:103AF000C4F88C90B4F85E00B0B92068016821F475
:103B00008071016020688168194A1140816020201D
:103B1000C4F88800C4F87090E06E01281CD02046DC
:103B2000FFF74AF9C4F86C900FB1A806A0D4B4F816
:103B30005E00002895D0B4F86810814291D92068C1
:103B4000816821F0805181600A48206720680168FF
:103B500041F02001016084E72068016821F0100134
:103B60000160B4F85C102046FEF7FCFEDAE70000C6
:103B7000FEFFFFEFBD3900082DE9F0410446016862
:103B800080682269E3691043626900251A43104383
:103B9000DFF82CC20A688B4B1A4002430A60206887
:103BA0004168E26821F44051114341602168A069F5
:103BB000614501D0226A10438A68834B1A40024350
:103BC0008A602068C16A626A21F00F011143C162F4
:103BD0007E4923687E488B420DD1D0F8880010F0D2
:103BE000030006D0012855D0022842D003283FD137
:103BF00052E001203DE077498B420BD1D0F888009C
:103C000010F00C0035D0042833D0082840D00C2800
:103C10002ED141E070498B420BD1D0F8880010F0D2
:103C2000300026D0102835D0202831D030281FD1A0
:103C300032E06A498B420BD1D0F8880010F0C00006
:103C400017D0402826D0802822D0C02810D123E0C9
:103C500063450DD1D0F8880010F4406009D0B0F56C
:103C6000806F17D0B0F5006F12D0B0F5406F13D051
:103C700010205B4A5B4F00264FF40041634539D169
:103C800060B102280DD004280DD0082831D10EE0F3
:103C90000220EEE70420ECE70820EAE7FEF754F9FB
:103CA00003E0114603E0FEF773F901007DD0606A7E
:103CB00037F810206768B1FBF2F007EB4703834247
:103CC0006CD8B0EB073F69D8002308461946FCF7CB
:103CD0001BFB090241EA10610202780810187141C9
:103CE0003A460023FCF710FB3F4AA0F54071914291
:103CF00059D953E0E3694FF6EF788B422DD109286B
:103D00004CD2DFE800F005080D4B274B4B4B0E0063
:103D1000FEF71AF901E0FEF729F9010001D144E0AC
:103D20001146606A37F81000B1FBF0F0410060689E
:103D300001EB5001B1FBF0F080B2A0F11001414560
:103D40002CD84FF6F0710140C0F3420001432068C7
:103D5000C1602AE0FEF71CF9DFE709281ED2DFE880
:103D600000F005080D1D1F1D1D1D0E00FEF7ECF8CF
:103D700001E0FEF7FBF8010001D116E01146606A90
:103D800037F81000B1FBF0F1606801EB5001B1FBB6
:103D9000F0F080B2A0F11001414504D9012504E002
:103DA000FEF7F6F8E7E72168C8600120A4F86A008A
:103DB00024F8680F2846A660E660BDE8F0810000A0
:103DC00000800040F369FFCFFFF4FF11003801408D
:103DD000001002400044004000480040004C0040F9
:103DE0000024F4000A400008FFFC0F0070B5816554
:103DF000A0F85C20A0F85E200021016783684FF4E2
:103E00008056FF24B34204D10369D3B940F2FF13B3
:103E10001DE07F259BB1B3F1805F15D0A0F8601045
:103E2000C0F88C102223C0F8883003689C6844F0E6
:103E300001049C60436EB3F1005F0ED027E003697C
:103E400043B9A0F86040EBE703691BB13F23A0F83A
:103E50006030E5E7A0F86050E2E7B0F868309342E0
:103E600015D88268B24201D1026972B1114A026763
:103E700080F8801001680A6842F480720A60006865
:103E8000816841F0805181600FE00B4AEFE7826862
:103E9000B24201D1026952B1084A026780F880102B
:103EA0000068016841F490710160002070BD044A0F
:103EB000F3E700003D3A000881380008BD390008EA
:103EC000013800082DE9F0479A4617460E46044689
:103ED0004FF000094FF02008089D39E0681C37D0EA
:103EE000FDF702FDA0EB0A00A84222D80DB320681E
:103EF000016849072CD5C069C043000528D4216852
:103F00004FF4006008622068016821F4D0710160FC
:103F10002068816821F001018160C4F88480C4F8C0
:103F20008880C4F88C8000BF84F880900320BDE8AE
:103F3000F0872068016821F4D071016020688168F1
:103F400021F001018160C4F88480C4F88880EBE727
:103F50002068C06936EA000004D00020B842BDD015
:103F60000020E4E70120F9E70148FEF74DBD00001D
:103F7000C0120020FEE70907090E002804DB00F14B
:103F8000E02080F80014704700F00F0000F1E020FE
:103F900080F8141D704730380A2801D2012070477C
:103FA00000207047FDF7AEFCFFF76CFAFFF764F9ED
:103FB000FFF7F6F9FFF72CFAFFF706F90C48FEF7C2
:103FC000DDFAFFF701F80020FEF78CFF4FF6FF70D7
:103FD000FFF756F80020FFF741F87F210548FCF76E
:103FE000E9FC012204490548FEF7C0FEFEE7000097
:103FF000741200200812002004000020C0120020CB
:104000004FF04070E1EE100A70470100020004001A
:10401000060008000A000C0010002000400080008C
:104020000001010101030701000008040204080166
:104030000101000000000000000001020304060767
:104040000809000000000102030404000008000049
:104050000000000000020001000010007C40000889
:1040600000000020F0110000140200080C470008B6
:10407000F0110020C0070000780200087006070059
:10408000640A000100042FFFFF00010316800102F3
:10409000611EE13292CC02012A6A23600C02200FD9
:1040A00030063006FE1FFE1F3006380718030A20B0
:1040B00007180318038C01023172201700E003F87F
:1040C0000F9C0E8C1C8C188C009800F801E0078067
:1040D0000E800E100B189C18B80CF00FE003802611
:1040E000A15A10090E181B0C110C11060210110315
:1040F00011039B018E01C038C06C604460443002E3
:1041000064071844186C0C38241005E001F0037A99
:1041100010140618063003F001F000F8009C310E70
:1041200033061E061C02E0063FFC73F021B8920C19
:10413000020121E7100B0200038001C000C00060F3
:1041400002D230022114211C155E12032A151632E8
:1041500020123570120302D20602111425A2214E3C
:10416000D6208821481008D806F807E00130D2058B
:104170002AEAC405FC3FFC3FE8092C301200020289
:104180001B806C000633E007E0070001253AF57F4D
:10419000750C155C351045624564D17AE00A03F070
:1041A00007380E180C0C1802D409180C380EF0073A
:1041B000E003B0214C0C071901F0019801880803B5
:1041C000A16043F80F5E220002219C35F025ECD05F
:1041D000071800FC1FFC1F90100701F807180E0CB1
:1041E0000121C81805C003C00751113C41920210BB
:1041F000F8904C0B0C000E000F000F800DC0300328
:10420000116B270C0CB209148513F80F903189300B
:1042100009EC03FC071C0E001C98115E0005101C25
:104220000C180E602009C007F00F381C1818325403
:1042300009CC03EC0F3C0E1C1C2006121C2031D2B2
:104240004582357C16C07A3AE0C85A70DE05148083
:10425000215384073806F007F0078CE005380CF886
:104260000F604130521C2430091C1C381EF81BE022
:1042700019D1130C1CC00B1BF0018A012114011F62
:1042800030091ACE1C0510001C80720416F8DC1AC6
:10429000F85C17800F600A1810F8C3F81F080D1E8D
:1042A0001405180708003800F00114121F61161FCA
:1042B0009C13013814091770796E6D2603FD2E03C7
:1042C0003D7C03400C18180420C229224A114409DD
:1042D00002EC0C221113E20C02400420181898037F
:1042E00015D4200403C00602396E2218022C07F8E8
:1042F0003FF83F1C70AF052119D9106C0503FC0F66
:104300000C5E0310040CFC070E1A18A541021E18BF
:104310000003FA0770BC0A1F38381C300C700660A6
:10432000DD04E008600C701C30F01F903C08FE03B8
:10433000FE0F060E06A105B1022DB305E8050EFE1F
:104340000FFEA01DCC048DA20529AEADB0053D38F1
:1043500003C5A211DC4DBB032D27038005F81FF810
:104360001F0E4DD303DDCA043C0C0FF83F3C780E02
:104370006006E007C0810411A11DC5031533DC09E7
:104380000EC03CF0F83FE00FBF03A23002319EB1F7
:10439000120F260C3080070D15A005021406022509
:1043A00031DC063807F003E0B004353A10140C068F
:1043B0000606038601C60066007600DE008E010652
:1043C0000312360C64DD4105021B18022530CD2195
:1043D0000320050EE01EF0024336D8022366CC020D
:1043E00052C601E40586C386C32010041C303C027B
:1043F000126C0212CC0210058C310C330212360200
:10440000123C02E638201C05E007F81F9904193E0B
:10441000A303C002F80806600E701C38F8401BFCAD
:104420000F02CA38920E190CC407916082E05E1424
:104430000907E006630E3F1C3CE0CEF791061982A7
:1044400058041F06389C1E38C00876074C49B20E27
:10445000106030065DDE041D9B051BF80330331E23
:1044600000401C050E301C1C1005ED000308042A3A
:104470007FFE7F10E95EA97E0710181820430360B5
:10448000BC6D14072D16072D9409140570076003E1
:10449000631DE005E13023C3610283663302236CB0
:1044A0001B02CC092C1A3C1E380E380E31051C0993
:1044B0000FE00C70183030183F043C040EC0075E4B
:1044C00004140503E00670F71D8107D006300E6066
:1044D00007E0602D79044C08301C383818300C6522
:1044E000030D1C80075C05FC7FFC7F6D07DD7C07EE
:1044F0002D2708253EED10082FE003AE06011E0211
:1045000021282DA60A6DA6094DA8091D64096D0E66
:104510000B7E03A009F1600221000261601D820789
:104520001D4407256C3F6003D7042919013901CFC9
:10453000FFFFF60B0D2DAE0A9D4A081805F003F893
:1045400007AA2C070C000FF00FF8B1081F0C1C5C19
:10455000080F16F01820041ED8A80B1E3837088143
:10456000012DE0070F17D803DA091D9A096F300EE5
:1045700039092DA3081E309009EEC00009711F28CB
:1045800005C01BF01F368160000719301CF01FC0EA
:104590001B601E0F83066E18D4051952EC051CF023
:1045A0000FC0F00644040FC00FDA2D9C0855E4B18B
:1045B000020D17D40A1E0DFA093DCA0961011D60DA
:1045C0000924050FE00D002A6E06AA0895204F0762
:1045D000F86A09D1010D16F00A0215C002012E3049
:1045E00041DEEC04F80078BE0C1C050C0C060C6ACD
:1045F0000D100DCC006C00FC009C018C030C031210
:104600000E100C560C011C020D169009E0097C3CA2
:10461000FF7EC7E383C1020D16EA0B06239820052F
:1046200010E099101D0E0E0A17C0700916A00D1685
:10463000EA070917700D151B081EB06E07FE70E221
:104640000D0E1830140D1E037A0E1D1A0B1DF209E3
:104650003D060C0D15900C1D020F0919A00F170730
:1046600080EA0D09106A1238C01D4C0B0D15DB0ACB
:104670004DFE053E18920F1DB7060E140300068D61
:10468000F80F3008C141C141C361630132360132C4
:104690001C010D16F00F3E1CF70952605A1D5E06F4
:1046A0001D75061E38E10B0117C01D36061D3806A4
:1046B0002E1828102FE00C940A2D3E064DF00D1DEB
:1046C000A20D1D700C0D159A0C0D1B800D8D300B5D
:1046D0008D320E2DE205BA40D63D900F0D25900982
:1046E000CD22119E6024069DC60FB3030048FEC074
:1046F000A80E5D74050C061810F81F080F34112D54
:0C4700006B0C7D010700040024F4000095
:04000005080001D915
:00000001FF
